:020000040800F2
:10000000B8D60020710700086D0700086D070008CA
:100010006D0700086D0700086D070008000000006C
:100020000000000000000000000000006D07000854
:100030006D070008000000006D0700086D0700084C
:100040006D0700086D0700086D0700086D070008C0
:100050006D0700086D0700086D0700086D070008B0
:100060006D0700086D0700086D0700086D070008A0
:10007000812E00086D0700086D0700086D07000855
:100080006D0700086D070008B91200086D07000829
:100090006D0700086D0700086D0700086D07000870
:1000A0006D070008811E00086D0700086D07000835
:1000B0006D0700086D0700086D0700086D07000850
:1000C0006D0700086D0700086D0700086D07000840
:1000D0006D0700086D0700086D070008712800080B
:1000E0004B1C00086D0700086D0700086D0700082D
:1000F000152100086D0700086D0700086D0700084E
:100100006D0700086D0700086D0700086D070008FF
:100110006D0700086D0700086D070008D52200086C
:100120006D0700086D0700086D0700086D070008DF
:100130006D0700086D0700086D0700086D070008CF
:100140006D0700086D0700086D0700086D070008BF
:100150006D0700086D0700086D0700086D070008AF
:100160006D0700086D0700086D0700086D0700089F
:100170006D0700086D0700086D0700086D0700088F
:100180006D0700086D07000810B5054C237833B9DA
:10019000044B13B10448AFF300800123237010BD5A
:1001A000EC04002000000000585D00080C4B43B137
:1001B0000C480D4910B5AFF300800C48036823B913
:1001C00010BD0A48036833B97047094B002BF7D0BC
:1001D000BDE810401847064B002BF5D0184700BF6C
:1001E00000000000585D0008F0040020E804002032
:1001F0000000000001F0030301F0FC0101F1804167
:1002000001F59C3110B58A689B000F249C4022EABE
:1002100004028A608A6898401043886010BD00001C
:1002200070B505460846441EE4B2F62C11461A463F
:100230009DF8103004D81E4C20701DB1012D1FD028
:1002400002241BE01B4E66601B4EA6601B4EE66040
:100250001B4E656126611B4C1B4D25601B4C1C4DC4
:1002600025601C4C1C4D256002F048F8044628B956
:1002700000F0F6F8D0B1194B01221A70204670BD7B
:10028000174D6560174DA560174DE560174D256149
:10029000002565610B4C164D25600C4C154D2560F5
:1002A0000C4C154D256002F0C3FFDFE70324E5E7A2
:1002B000080500203923000855230008B123000851
:1002C0006923000804CC002019240008FCCB00207E
:1002D0008124000800CC0020D92400080000002060
:1002E0006532000885320008F532000899320008AE
:1002F00061330008553400081135000810B5064C6C
:100300002378012B05D1054B5B68984700202070AE
:1003100010BD062010BD00BF000000200805002011
:10032000F7B5314D2C78002C5CD10DF1070000F0B1
:10033000A7F80128034601D0002405E09DF8072016
:10034000012A04D0022A19D0204603B0F0BD274D5F
:100350002B6905F1180205F11C0105F120009847F1
:1003600004460028E8D195F820302A789A4201D036
:10037000002BE1D1022000F07BF8E5E71B4AD069B1
:1003800082F82230017882F8211023462F1D14466E
:1003900017F83360DA003EB1B1421FD11544144959
:1003A000AB68984784F8220094F82030002BC3D023
:1003B00094F8222062B10123238394F82130E1696B
:1003C00063F07F030B70238BE169581C2083CA54B0
:1003D000E368228BE16920789847ADE70133102B61
:1003E000D6D1E1E70624AFE7000000200805002091
:1003F000200500200B88052B70B50D462DD1C37844
:10040000027942EA0322531E9BB240F2CE718B4224
:1004100023D80023467881782B80022303702B8811
:1004200012F0070F4FEAD20418BF01340133E4B2CF
:100430002B8044702B8841EA0621013301312B8047
:1004400089B2023000F0ACFA18B1BDE8704000F09B
:100450004DB92A8814442C8070BD032070BD000063
:10046000024B00221A700120704700BF2B050020AC
:10047000024A012350701370184670472B05002064
:10048000044A137823B153780370002313700123B7
:10049000184670472B05002038B50D4604490C8CD2
:1004A00001302246013404F089FF2C80002038BD41
:1004B0002E05002008B5254B984209D101211020B6
:1004C00000F0F6FC00211020BDE8084000F0F0BC70
:1004D0001F4B98420BD101214FF4003000F0DCFC9F
:1004E00000214FF40030BDE8084000F0D5BC194BA6
:1004F000984208D101214FF4802000F0CDFC00216A
:100500004FF48020EFE7144B984208D101214FF4BB
:10051000002000F0C1FC00214FF40020E3E70F4B66
:10052000984208D101214FF4801000F0B5FC002161
:100530004FF48010D7E70A4B984206D101212020C2
:1005400000F0B6FC00212020BEE708BD00100140ED
:100550000044004000480040004C00400050004073
:1005600000140140028A30B50D4692B2EB888989A9
:1005700022F440521A4302828389044623F4B05283
:100580002889AB880343688922F00C0203431204D4
:10059000120C9BB21343A381A38A9BB223F4407332
:1005A0000B4385B0A382684600F00EFC194B9C42B9
:1005B00003D003F580639C4222D10399A38913F4ED
:1005C000004F2B684FF0190214BF5B009B004A4399
:1005D000B2FBF3F1A28964251204B1FBF5F34FEAF3
:1005E000031005FB13130DD5DA003232B2FBF5F21E
:1005F00002F0070242EA00039BB2238105B030BD3E
:100600000299DBE71B013233B3FBF5F303F00F0371
:100610000343F1E700100140038A9BB223F47062A8
:1006200010B50B884C8823438C88C98823430B431F
:100630009BB21343038210BD002303804380838059
:10064000C3807047838921B19BB243F400538381F7
:10065000704723F400531B041B0CF8E7C1F3080197
:10066000818070478088C0F30800704710B5C1F3DF
:10067000421401F01F03012C4FF0010101FA03F1B4
:1006800005D10C3003683AB11943016010BD022C4A
:100690000CBF10301430F5E723EA0101F5E7C1F390
:1006A000421210B5012301F01F04012A03FA04F3DA
:1006B0000ED1828992B21340028892B26BB10123AB
:1006C000090A03FA01F10A4214BF1846002010BDBE
:1006D000022A0CBF028A828AECE7184610BD0B0A78
:1006E00001219940C94389B20180704707289ABF08
:1006F000014B185C04207047C456000830B5094C03
:1007000040F6FE732268834022EA030291E8280043
:100710002B438D68C9682B430B4303FA00F0104349
:10072000206030BD0074004000230360436083609C
:10073000C3607047064A012321B1116883400B430F
:10074000136070471168834021EA0303F8E700BF94
:10075000007400400828044B0CBF42EA012242EA20
:100760000142C250704700BF20740040FEE7000005
:100770000D4A0E4B0E498B4210D30E480E494FF0D6
:1007800000028842B8BF40F8042BFADBDFF82C00E7
:10079000016841F47001016000F06AB952F8040F79
:1007A00043F8040BE7E700BF545D00080000002099
:1007B000EC040020EC040020B8CE002088ED00E01E
:1007C00008B50B88052B0FD14378817841EA0321C6
:1007D000013101231A4689B2033000F0A7F828B18D
:1007E000BDE80840FFF782BF032008BD08BD0B88A5
:1007F000052B10B50C461DD9C378027942EA0322B5
:10080000531E772B16D853004179DBB2994211D190
:100810004378817841EA03210131012389B206300E
:1008200000F084F818B1BDE81040FFF75FBF052263
:10083000228010BD032010BDF8B50B88052B0C4697
:1008400024D1027995B26B1E7C2B1FD8032600237E
:1008500047788178238006702688520001362680EA
:100860004270228841EA072101320131228089B297
:100870002A46023000F05AF818B1BDE8F840FFF7F8
:1008800035BF228802EB45052580F8BD0320F8BD61
:100890002DE9F8430B88092B04460D463CD9C37853
:1008A000077947EA03277B1E7C2B38D8C379027A65
:1008B00042EA0322531E782B31D8437AB3EB420F1E
:1008C0002DD14379817990F80190867841EA03210E
:1008D0000131012389B20A3000F028F8034608BB31
:1008E0001722288022702A884FEA470801322A807E
:1008F00084F801802A8846EA0921013201312A80E0
:1009000089B23A46A01C00F011F858B92B889844D7
:10091000A5F80080BDE8F8830020BDE8F883032037
:10092000BDE8F883BDE8F843FFF7E0BE30B549F60F
:100930004044A1422ED98D1849F65544A54229DCE0
:10094000A3B1012B1AD1144B03EB4101A1F59C314A
:100950008439023092B110F8024C10F8013C013A8F
:1009600043EA042321F8023F92B2F2E70A4B03EB79
:100970004101A1F59C31843902300AB9002030BD13
:1009800031F8023F00F8013C1C0A013A00F8024C21
:1009900092B2F1E7012030BD5005002001207047E0
:1009A00001207047012070472DE9F34101210846DD
:1009B00000F04EFA684601F019FC012400254FF4BE
:1009C00000430226694627480093274F8DF80440CC
:1009D0008DF806508DF807508DF8056001F0B8FBD2
:1009E0002146304600F034FA684601F0FFFB4FF430
:1009F00000536946384600938DF804508DF8054041
:100A000001F0A6FB684601F0F1FB4FF4104869467F
:100A10003846CDF800808DF804408DF806508DF8EA
:100A200007608DF8054001F093FB4146384601F020
:100A3000EBFB2146082000F00BFA684601F0D6FBDC
:100A40004FF440636946094800938DF804408DF8DF
:100A500006508DF807608DF8054001F079FB02B073
:100A6000BDE8F0810000024000040240000C02409A
:100A70002DE9F0432DED048B89B0002302930393FD
:100A800004930593069301F03DFD01F0B7FDFFF7D8
:100A90008BFFA64800F046FA002200924FF4E133A3
:100AA00001211046FFF7BCFB08B9FFF727FC9F495F
:100AB0009F4F002364261A461D460C46079507984B
:100AC000B84240F21581888A02FA80F2C88A013E53
:100AD00003FA80F3F2D16420B2FBF0F2B3FBF0F33F
:100AE00012B21BB20A839FED939A4B83DFF8A89250
:100AF000DFED918A01230B61B0464FF400418F482E
:100B000001F084FB94ED0F0AF0EE490A05A802F00B
:100B100060FB94ED0C0AF0EE490A04A802F059FBC0
:100B200094ED310ADFED860A06A802F052FB854BF0
:100B3000DFED850A1B8800EE103A4846B8EE400A01
:100B400002F047FB814BB3F9003000EE103AF0EEB3
:100B5000680AB8EEC00A02A802F03BFB7C4B93ED9A
:100B6000000AF0EE680AB8EE400A03A802F031FB72
:100B700094ED360A7748F0EE680A02F02AFB94ED0D
:100B8000380A7548F0EE680A02F023FB94ED3A0A41
:100B9000DFED720A724802F01CFB94ED3A0ADFEDB9
:100BA000710A714802F015FBDFED707A9DED067A4F
:100BB000B4EEE77AF1EE10FAB0EE678A40F39F8068
:100BC0006B4B984540F298804FF40061694801F002
:100BD00019FB4FF48061674801F014FB544B9E42AF
:100BE00086BF0123E3600136E368634D13B901F06A
:100BF00017F8A862614B624A1B6812689FED617A20
:100C00009B1A07EE903AF8EEE77A67EE877A67EE7E
:100C1000887AFDEEE77AF8EEE77AC4ED0D7A94ED86
:100C20000B7AD4ED0B7A94ED0C0AD4ED0C6A20EE1D
:100C3000260AA7EE270A03F0DBF8D4ED3D7A9FEDF4
:100C4000527A67EE877AFDEEE77A17EE907A01F036
:100C50001FF8D4ED077A9FED4D7AFDEEE77AC0F1EB
:100C6000070017EE903AD4ED087A2B80FDEEE77A74
:100C7000288117EE903ADDED067A6B80FDEEE77A7B
:100C800017EE903AD9ED007AAB80FCEEE77A17EEDA
:100C9000903AEB803E4B5B6AD4ED007AAB8167EE15
:100CA000877AFCEEE77A17EE903A6B8100F0B8FF96
:100CB000E88100F0B5FFDDED027AAF83FDEEE77A63
:100CC0003F1417EE903ADDED037AEB82FCEEE77A03
:100CD000001417EE903AD4ED0D7A2B83FDEEE77AEF
:100CE000288217EE903AEF836B83FFF719FB04E736
:100CF000079801300790E2E608F1010874E7DFED9C
:100D0000257AB4EEE77AF1EE10FA7FF56DAF4FF485
:100D10000061184801F078FA4FF48061154801F03D
:100D200073FA0023E36098465EE700BF10CC002012
:100D30009F86010017B751386F12033A0000024036
:100D400017B751398CCD0020BC74133C88CD0020DE
:100D5000D88B0020ECCC0020F4CC00200AD7A33B99
:100D6000FCCC0020ACC5A73804CD002000007A449C
:100D70003F0D0300000C0240500500202C0B00200A
:100D8000280B002002EC9F3A0000C842EA04B43D60
:100D9000000400400000614490CD002030B5FF23E6
:100DA000084D01441C46884202D143EA042030BD6C
:100DB00010F8012B5A40AB5C2A44634092F8004182
:100DC000F1E700BFCC5600081D4A936803F00C03FE
:100DD000042B10B51AD0082B1AD01A4B184A0360EE
:100DE00093681949C3F30313CC5C0368E340436081
:100DF0009468C4F382240C5D23FA04F4846092683E
:100E0000C2F342328A5CD340C36010BD0F4BE5E7AA
:100E10005468516852686302C2F3881201F03F01BE
:100E20004CBF0A4B074BB3FBF1F35343044A5268E0
:100E3000C2F3014201325200B3FBF2F3CEE700BF2E
:100E4000003802400024F4008400002000127A00E0
:100E5000044B1A6B11B110431863704722EA00006B
:100E6000FAE700BF00380240044B1A6C11B110437E
:100E70001864704722EA0000FAE700BF0038024019
:100E8000044B5A6C11B110435864704722EA0000B9
:100E9000FAE700BF00380240044B1A6A11B1104350
:100EA0001862704722EA0000FAE700BF00380240EB
:100EB000044B5A6A11B110435862704722EA00008D
:100EC000FAE700BF0038024030B587B0684601F04D
:100ED0008DF90124302300256946114800938DF8CF
:100EE00004408DF8075001F033F921464FF00050CF
:100EF000FFF7BAFF02A8FFF717FC02A92846FFF781
:100F0000FDFB02A91020FFF7F9FB21462846FFF759
:100F100011FC21461020FFF70DFC07B030BD00BFCB
:100F20000000024038B54F4C4F4D20602DED088B2E
:100F30009FED4E8ADFED4E9ADFED4E8A9FED4E9A81
:100F400020689FED4EBADFED4EAA9FED4EAAF82223
:100F5000002104F0CDFAF0EE691AB0EE481A2846E6
:100F6000DFED490A9FED490A02F0E0FAF0EE680A67
:100F7000B0EE490A284602F0E5FA28469FED440AF9
:100F800002F0E5FA2846434D9FED430A02F0E6FAE7
:100F9000F0EE691AB0EE481AF0EE480A2846B1EEB3
:100FA000000A02F0C3FAF0EE680AB0EE490A2846D9
:100FB00002F0C8FAB0EE480A284602F0C8FA2846FD
:100FC0009FED360ADFED369A02F0C8FA2068F0EE9F
:100FD0004B1AB0EE481AF0EE6A0AB0EE4A0A4030F8
:100FE00002F0A4FA20689FED2F0AF0EE680A403064
:100FF00002F0A8FA2068B5EE000A403002F0A7FA25
:101000002068B0EE690A403002F0A8FA2068F0EEDD
:101010004B1AB0EE481AF0EE6A0AB0EE4A0A743083
:1010200002F084FA2068F0EE680AB0EE490A7430E3
:1010300002F088FA2068B5EE000A743002F087FAF0
:101040002068B0EE690A743002F088FA00F0CAFD38
:1010500000F04EFF02F0B6F8BDEC088BBDE838405A
:10106000FFF732BF7C05002044CD002000000000C7
:10107000C520803F77BE7FBF77BE7F3FF701803FAF
:101080006F12833A8FC2F53D8FC2753C6666E63EAD
:101090003333333F08CD00200000C84200409C4657
:1010A00000E0FF44A4707D3F13B507EE901AF8EE00
:1010B000E77A0446C0ED007A0846019100F070FE20
:1010C000019884ED010A00F073FE84ED020A02B07B
:1010D00010BDB0F91820B0F914309B1A07EE903A01
:1010E000B0F91A20B0F91630F8EEE77A9B1AF1EE53
:1010F000677AC0ED077A07EE903AF8EEE77AF1EEFC
:10110000677AC0ED087A7047D0ED077AD0ED086AAB
:10111000C0ED097AB0EE007AE6EE877A9FED037AA9
:1011200067EE877AC0ED0A7A704700BF3ACD133F69
:10113000D0ED0A5AD0ED016A90ED096AD0ED027A3D
:1011400025EEA67AA6EE277A67EEA57A80ED0B7AD1
:10115000E6EE667AC0ED0C7A7047D0ED2B5AD0EDF2
:10116000016A90ED2A6AD0ED027A26EEE57AA6EEC3
:10117000277A67EEA57A80ED2C7AE6EE267AC0ED26
:101180002D7A7047D0ED2D7AD0ED2C5A9FED0B6A59
:10119000C0ED2F7AF1EE677AB0EE677AA5EE867A27
:1011A000E5EEC67AF6EE006A27EE267A67EEA67AB4
:1011B00080ED2E7AC0ED307A704700BFD7B3DD3FA7
:1011C00090ED2B0AD0ED2A7A20EE000A10B5A7EE9A
:1011D000A70A044602F00CFEDFED0E7AB4EEE70A31
:1011E000F1EE10FA0EDDC7EE806A94ED2A7AD4EDA6
:1011F0002B7A27EE267A67EEA67A84ED2A7AC4ED5A
:101200002B7A06E0DFED047AB4EEE70AF1EE10FA8D
:10121000E9D410BD77BE7F3F77BE7FBF254B5A69AB
:10122000D3F808C02DE9F0415C68B0F800809A61FD
:101230001A695A61D3F88C20D3F80CE09C60C3F88B
:1012400090204444D3F88820D3F88450D3F88060A9
:101250000F88C3F88C206444DA6FC3F88020C3F889
:1012600010E0C3F80CC0C3F80480C3F88850C3F87A
:101270008460DF6704EB0E0307EE103AB8EEC77A1E
:10128000F5EE006A27EE267A3A44FCEEC77A32443D
:1012900017EE903A0380531907EE903AF8EEE77A8A
:1012A00067EEA67AFCEEE77A17EE903A0B80BDE87F
:1012B000F08100BF7C0500202DE9F0432DED028B6D
:1012C000D34DD448D44C87B0042100F09BFF2B6849
:1012D00013F0040F10D014212846266800F0F8FB04
:1012E0001821B0822846266800F0F2FB07EE900A2B
:1012F000F8EE677AC6ED317AC84D2B685A070BD5E0
:1013000014212846266800F0E3FB1821F0822846C5
:1013100000F0DEFBC24B188040F20741BC4800F0F1
:10132000F0FB40F20741BD4800F0EBFB206821686C
:1013300014301631FFF772FF23681B69002B00F091
:101340003B82B84DB8496B6AB84A5B421BB20B800E
:10135000D4F8F4300133282BC4F8F430084640F0B8
:10136000348200236B620B881BB207EE903AF8EED2
:10137000E77ACDED027AD2ED007AF8EE677ACDED1C
:10138000037A0B881B0442BFDDED037AF1EE677A26
:10139000CDED037A2368DFEDA67ADDED026A86EEF5
:1013A000A77ADDED037ADFEDA36A2268F5EE407AD5
:1013B00027EE267AF1EE10FA83ED367A1EBFDFEDC6
:1013C0009E7A9DED037A9FED9D6A216818BF27EEF6
:1013D000277A4FF0000317BFC6EE077AC2F8E03055
:1013E00067EEA67AC2ED387A2268D1ED367A92EDB0
:1013F000387A77EE877AF5EE407AF1EE10FA00F05F
:10140000E081236825682068D5ED367A90ED387A3A
:101410002168226867EE877AD2ED386A91ED367AD4
:1014200077EEA77A37EE267AC7EE876AC3ED3A6A77
:101430000023C4F8F4302368814ED3F8E8303360D9
:101440000521804896ED000ADFF834827E4F7F4DFB
:1014500001F0CCFEB8F900308DED040A7A6AC3EBD6
:1014600003431344142253432B6000F0D9FB2B6831
:10147000C4F8AC05C4F8B0352368754DDA68002AA5
:1014800000F0EA81D4F8B4350133082BC4F8B43540
:1014900009D1D4F8B8350F33C4F8B8356D4B1B6893
:1014A0000023C4F8B435D4F8BC350133082BC4F894
:1014B000BC353DD1D4F8B035674800EE103A05216F
:1014C000B8EEC00A01F092FE644B8DED050A9DED69
:1014D000058A059AD3ED007A9DED050A1A60D4F8C5
:1014E000AC355F4800EE903AF8EEE00A38EE678AD5
:1014F00002F03CF8DFED5B7AA8EE270AF7EE007AFF
:10150000B4EEE70AF1EE10FA00F3A181FFEE007AE3
:10151000B4EE670AF1EE10FA48BFB0EE670ADFEDED
:10152000527A20EE270A002385ED000AC4F8BC3564
:10153000D4F8EC350133042BC4F8EC3540F0A58029
:1015400095ED007ADFED497A494BB4EEE77AF1EE9A
:1015500010FAC8BFC5ED007A95ED007ADFED457A47
:10156000B4EEE77AF1EE10FA48BFC5ED007A96EDD9
:10157000007AF2EE0E7AB4EEE77AF1EE10FA40F16C
:10158000698196ED007AFAEE0E7AB4EEE77AF1EE22
:1015900010FA40F35F81384A1A60384B95ED008AA3
:1015A000D3ED007A2A683248266895ED000ADDED11
:1015B000040A1A6038EE678A01F0D8FF18EE100AA4
:1015C0008DED000A03F03EFC0DA3D3E9002303F0E8
:1015D0008DFC9DED000A804610EE100A894603F04E
:1015E00031FC02460B464046494603F0CDFA06A3BD
:1015F000D3E9002303F07AFC03F08AFE002341E0E4
:101600007B14AE47E17A843F00000000009C9840C4
:1016100000200140000402407C0500200021014020
:101620008CCD00200008004088CD0020D88B002001
:1016300085EBA3410000704200100046001B374BB1
:1016400040CD0020780600200004014078050020ED
:101650003CCD002090CD00203C0B0020640B0020EE
:1016600008CD002052491D3900803B4500007A45D5
:1016700044CD002000007AC59A99993E6C0B002059
:10168000DC8B0020F063C4F8EC3500F00BFBA4F811
:10169000F4052068B4F8F41589B2FFF705FD206859
:1016A000FFF717FD2068FFF72FFD2068FFF740FDCB
:1016B0002368DB68002B40D02368774E93ED0F0A38
:1016C000DFED760A304601F084FD23683268DA6384
:1016D0002368DFED737A93ED0F7AB4EEE77AF1EEDB
:1016E00010FAC4BF2368C3ED0F7A2368DFED6D7A6B
:1016F00093ED0F7AB4EEE77AF1EE10FA48BF236863
:10170000266848BFC3ED0F7A20682368226893EDEE
:101710000E0AD2ED0B0A403001F028FF86ED2A0AAE
:10172000266820682368226893ED0F0AD2ED0C0A20
:10173000743001F01BFF86ED2B0A2068FFF740FD97
:101740002068FFF70AFD2068FFF71CFD206801F004
:1017500099FB23685448D3F8CC1002F0B1F9236800
:101760005148D3F8D01002F0ADF923684E48D3F8B1
:10177000D41002F0A9F9DFED4D7AD5ED006A9DEDA8
:10178000046AB6EE007AF0EE675AE6EE075A0020D9
:10179000E6EE877ABCEEE56AFCEEE77A8DED006A4C
:1017A000CDED017ABDF80410BDF80020FEF7D2FFA0
:1017B00004213F4800F028FD07B0BDEC028BBDE8D6
:1017C000F0832268C2F8E83032E60B88B4F9F810EA
:1017D0001BB2994204D1B4F9FA10136899422FD080
:1017E000D2ED007AF8EE677AF5EE407AF1EE10FA73
:1017F00026D09FED307ADFED306A236827EE877AB6
:10180000C6EE877A9FED2D7A67EE877A93ED3A7A66
:10181000236825682168B5EEC07AF1EE10FA95EDDF
:10182000367AD1ED366A48BFF1EE677A27EE877ACD
:1018300077EEA67A37EE077AC7EE276AC3ED3A6AE3
:101840001368A4F8FA300388A4F8F830F3E5B0EE92
:10185000670A64E61A4A9FE60023A8F800207A6225
:10186000C4F8EC25C4F8BC252B60C4F8B025226868
:101870002168CB62936322682168C1F8AC30C2F85A
:10188000A830226813662268C2F894300D4A1362A9
:101890000D4A1362F9E600BF740B00200AD7633FBC
:1018A00000E0C44400E0C4C40000014000E0FF4484
:1018B0000004024000100046001B374B000070423D
:1018C0006666E63E44CD002008CD002043680A79D4
:1018D00023F0407323F4807343EA02230A6813431E
:1018E0004360CA680B6913438A6810B51343846860
:1018F000084A224013434A7943EA420383600A7D3F
:10190000C36A013A23F47003D2B243EA0253C362BA
:1019100010BD00BFFDF7FFC00023036003714371DA
:101920008360C360036101230375704790E80C0076
:10193000064910B513434C68054A22401343826898
:101940001343C26813434B6010BD00BF0023014026
:10195000E030FCFF0023036043608360C360704796
:10196000836819B143F001038360704723F00103DA
:10197000FAE7092970B51BD9A1F10A04C56804EB7F
:1019800044040726A64025EA060503FA04F42C437E
:10199000C460062A18D8013A436B02EB82021F2466
:1019A000944023EA040301FA02F21A43426370BD31
:1019B000056901EB41060724B44025EA040503FA52
:1019C00006F42C430461E4E70C2A0CD8073A036BB5
:1019D00002EB82021F24944023EA040301FA02F27C
:1019E0001A43026370BD0D3AC36A02EB82021F24E0
:1019F000944023EA040391401943C16270BD836897
:101A000043F0804383607047836819B143F4807367
:101A10008360704723F48073FAE7836819B143F455
:101A200000738360704723F40073FAE7092970B5E7
:101A30001CD9A1F10A04C56804EB44040726A6409A
:101A400025EA060503FA04F42C43C460836B0232D2
:101A5000C3F30154121BD2B202EB82021F24944042
:101A600023EA040391401943816370BD056901EBCA
:101A700041060724B44025EA040503FA06F42C4382
:101A80000461E3E7836B013923F4401343EA015314
:101A900083637047836823F4702319438160704720
:101AA000836823F44013194381607047436819B178
:101AB00043F480634360704723F48063FAE743682C
:101AC00019B143F480534360704723F48053FAE71D
:101AD00082B0002301930190019B283319440191A6
:101AE000019B186880B202B070470123C9B203FAA3
:101AF00001F1436812B119434160704723EA0101C3
:101B0000FAE76FEA1121016070470B88052B70B569
:101B10000C4624D1C378027942EA0322531E7B2B60
:101B20001DD80023467881782380042303702388FE
:101B30005500013323804570238841EA0621013393
:101B40000131238089B20230FEF72CFF18B1BDE8C5
:101B50007040FEF7CBBD22881544258070BD032060
:101B600070BD0000F0B5012187B00820FFF770F9C3
:101B700001214FF48040FFF783F904A800F036FB01
:101B8000002401254FF40046032704A914480496B5
:101B90008DF814408DF816408DF817508DF815709B
:101BA00000F0D6FA0F213846FEF724FB0C2302A8DA
:101BB0008DF80D3002968DF80E508DF80C4000F027
:101BC0002BFF282301A88DF804308DF805408DF8EF
:101BD00006408DF8075000F077FF07B0F0BD00BF5A
:101BE000000C024007B501210820FFF731F96846D3
:101BF00000F0FCFA4FF4E043009300238DF804302A
:101C00008DF806308DF807306946022303488DF8B9
:101C1000053000F09DFA03B05DF804FB000C0240B3
:101C20004FF08043586A40427047014489B208B27D
:101C3000B0F5B47F04DDA1F5B47108B280B270478D
:101C40000028FBDA01F5B471F7E708B54FF400405E
:101C500000F01CFF28B14FF40040BDE8084000F040
:101C600023BF08BD08B5094800F0C9FA10F4005FA9
:101C7000C0F3003214BF0223002310F4804F14BFBE
:101C8000042000201343184308BD00BF000C02408D
:101C900008B5FFF7E7FF024B03EB4000008C08BDDF
:101CA000CC58000807B5FFF7F3FF214A5368984264
:101CB00014D0012803D1062B05D100230BE0062800
:101CC00001D1012B31D098421A4B4FEA80010B44CD
:101CD0008CBF1B6B1B6D18494B625060164BD86A4A
:101CE0005B6AC01A5368E3B907EE900A9FED137A56
:101CF000F8EE677A1E2167EE877AFDEEE77ACDED82
:101D0000017ABDF90400FFF790FF07EE900A9FEDFE
:101D10000C7AF8EEE77A67EE877AFCEEE77A17EE50
:101D2000900A80B203B05DF804FB40F6FF73D2E77F
:101D3000CC0B0020CC58000800040040FDFFB33D50
:101D40003108364170B5124E124D2DED048B9FEDCA
:101D5000129ADFED128A002407EE904AB8EEE78A65
:101D6000013428EE098A28EE288AB0EE480A01F0EC
:101D7000F5FFA6EC010AB0EE480A01F0A7FFB4F5A2
:101D8000805FA5EC010AE7D1BDEC048B70BD00BFFC
:101D9000D80B0020D84B0020FDFFB33D35FA8E3C18
:101DA000024B03EB800090ED030A7047CC0B002040
:101DB000024B03EB800090ED000A7047D84B0020E7
:101DC000F0B501218BB02C4D4FF40030FFF758F8DF
:101DD00001210220FFF73CF800244FF48073022712
:101DE000032602A9284602938DF80D608DF80C7029
:101DF0008DF80E408DF80F4000F0AAF93246082108
:101E0000284600F007FA01251C4E8DF805401923DD
:101E100001A88DF804308DF806508DF8075000F0B9
:101E200053FE1B23ADF81C3007A94FF6FF73304655
:101E30000893ADF82440ADF81E408DF8264001F01F
:101E4000EBFC0A23ADF8123004A90F233046ADF89D
:101E50001830ADF81040ADF81450ADF8164001F050
:101E600093FE2946304601F02CFD2A46394630467D
:101E700001F00AFF0BB0F0BD000402400044014035
:101E800010B50A4C0221204601F0E6FE01280BD1D4
:101E90000221204601F0EBFE204601F043FE044BF8
:101EA000C3F844090023636210BD00BF0044014031
:101EB0009482002037B52C230C4D8DF8043001247A
:101EC000002301A88DF805308DF806408DF80740F5
:101ED00000F0FAFD2146284601F0C9FE22462146BF
:101EE000284601F0D1FE03B030BD00BF0004014020
:101EF0002DE9F04788B0684600F078F902A801F0B3
:101F000009FE05A801F0C6FC01210846FEF7A0FF66
:101F100001210220FEF79CFF01210420FEF798FF1B
:101F200001210846FEF7A0FF01210220FEF79CFFD9
:101F3000734F744C744EDFF8D88101210420FEF7F2
:101F400093FF012102200125FEF79AFF4FF00209BD
:101F50004FF0030A694638468DF804908DF8075013
:101F6000CDF800A000F0F4F8F02369462046009375
:101F700000F0EEF8C02369463046009300F0E8F820
:101F8000602369466148009300F0E2F82A4638462B
:101F9000002100F03FF92A462946384600F03AF978
:101FA0004A462046042100F035F94A4620460521DC
:101FB00000F030F94A462046062100F02BF94A4647
:101FC0002046072100F026F952463046062100F04F
:101FD00021F9524630460721002400F01BF94FF04A
:101FE000FF3305A94FF08040A7F5FC370693ADF805
:101FF0001440ADF81C40ADF8164001F00DFC40F661
:10200000FF7305A94046A6F58236069301F004FC4D
:102010004FF6FF7305A93846069301F0FDFB05A9AD
:102020003046ADF8145001F0F7FB234622465146E6
:102030004FF0804001F02AFE23462246514640469A
:1020400001F024FE234622465146384601F01EFE8A
:102050002246294630460A2301F018FE0F2302A922
:102060004FF08040ADF81030ADF80840ADF80E40AC
:1020700001F08AFD02A9404601F086FD02A938461A
:1020800001F082FD02A9304601F07EFD042302A981
:102090004FF08040ADF8083001F076FD02A94046CF
:1020A00001F072FD02A9384601F06EFD02A930462A
:1020B000ADF80C9001F068FD29464FF0804001F02A
:1020C00000FC2946404601F0FCFB2946384601F059
:1020D000F8FB2946304601F0F4FB4FF080435C6288
:1020E000C8F824407C627462FFF73CFDFFF72AFECB
:1020F000FFF766FEFFF7DEFE08B0BDE8F08700BF21
:1021000000000240000402400008024000100240AB
:102110000004004010B50C4C0121204601F09CFD4C
:10212000012801460ED1204601F0A1FD238813F0BD
:10213000100F064BB3F848290CBF013202F1FF32F1
:10214000A3F8482910BD00BF00040140948200207C
:102150002DE9F0430D6800220126032406FA02FC53
:102160003CEA05033DD15700D0F800E004FA07F33C
:10217000DB430EEA030EC0F800E091F804E0D0F86B
:1021800000900EFA07F80EF1FF3E48EA0908BEF18A
:10219000010FC0F8008017D8D0F808E003EA0E035A
:1021A00083604B79D0F808E0BB4043EA0E038360BC
:1021B000436823EA0C0343608B79D0F804E0934032
:1021C0009BB243EA0E034360C36804FA07FE23EAA6
:1021D0000E03C360CB79D0F80CE0BB4043EA0E039A
:1021E000C3600132102AB9D1BDE8F0834FF6FF7306
:1021F00003600023037143718371C37170470069E9
:1022000080B27047018370474183704743695940EA
:102210004161704701F00703C90800EB810010B568
:10222000016A9B000F249C4021EA04010162016ABB
:102230009A400A43026210BD30B5012185B01A4DA3
:1022400004462020FEF710FE013C01A801F022FB0D
:1022500041F26703029401A900242846ADF8043036
:10226000ADF80C40ADF8064001F0D6FA2846012141
:1022700001F0FDFC01221146284601F005FD37233F
:102280008DF80140684601248DF800308DF8024039
:102290008DF8034000F018FC2846214601F011FBA0
:1022A000204605B030BD00BF0014004010B5054CFD
:1022B0000021204601F0F7FA20460121BDE8104038
:1022C00001F0FFBA001400400021014801F0F9BA02
:1022D0000014004010B50121064801F0BDFC40B1DA
:1022E0000121044801F0C3FC034BBDE810401B680A
:1022F000184710BD0014004000CC002010B508465F
:10230000144672B60822214600F01EFA01280CD1AC
:10231000B4F5964F97BF074823206400B0FBF4F054
:1023200080B2FFF789FF012802D0032062B610BDFA
:102330000020FBE7A07F170008B572B6044B002110
:102340000120197000F0D6F9FFF7B0FF62B608BDA2
:10235000E08B002008B572B60021084600F0CAF9EB
:10236000FFF7B2FF62B608BD2DE9F04180460E4688
:10237000174672B60C4D6B889BB2032B03D8052011
:1023800062B6BDE8F0816988084C89B22046FEF744
:1023900005FD0028F3D114F8012B698888F8002086
:1023A000033939803460EBE7E08B002094CD0020C6
:1023B00038B5034672B6164C2578EDB2012D25D1FD
:1023C000258101F8013C238912FA83F292B222811D
:1023D000481E2189606089B2FEF7E0FC23890D491F
:1023E0009BB25A1C92B22281C2B2CA5423899BB2B8
:1023F0005A1C92B2C0F307202281C85400202946FB
:10240000A57200F077F9002062B638BD0520FBE721
:10241000E08B002094CD002007B50DF1070000F0FF
:1024200069FA154B1A78032A20D8DFE802F01D025A
:10243000101D00225A805A889DF8070092B2511C44
:1024400089B259800D49885402221A700CE05A88CA
:1024500092B2FF2A0ED85A8892B2511C89B2598082
:10246000064B9DF807109954FFF720FF002003B09A
:102470005DF804FB0322E8E7E08B002094CD002008
:10248000F8B5144CA37A03F0FF071BB1012F06D057
:1024900000261CE03946012000F02CF9F8E72589D8
:1024A000ADB25DB16368187800F01AFA6368013361
:1024B00063602389013B9BB22381E9E70320FDF799
:1024C000D7FF29460646384600F014F9A572304673
:1024D000F8BD00BFE08B002038B5094C227802F02F
:1024E000FF0022B1022801D0002503E00120FDF702
:1024F000BFFF0546FFF7E8FE01232370284638BDDD
:10250000E08B0020374AD2F8883043F47003C2F8D9
:102510008830354B1A68002142F001021A60996038
:102520001A6822F0847222F480321A602F4A5A60AC
:102530001A6882B022F480221A60D9600091019159
:102540001A6842F480321A6019461A6802F400329E
:102550000192009A01320092019A1AB9009AB2F5DA
:10256000A06FF2D10B6813F4003318BF012301935D
:10257000019B012B05D01B4B4FF000629A6002B00B
:102580007047194B1A491A6C42F080521A640A6853
:1025900042F480420A609A689A609A6842F4004263
:1025A0009A609A6842F4A0529A60124A5A601A6875
:1025B00042F080721A601A689201FCD50E4A40F20D
:1025C000056111609A6822F003029A609A6842F0ED
:1025D00002029A60044A936803F00C03082BFAD1B4
:1025E000C9E700BF00ED00E00038024010300024D1
:1025F0000070004008544007003C0240174A184948
:10260000936803F00C03042B10B50DD0082B0DD0EC
:10261000144B0B60114B9B68C3F303130B441A79E3
:102620000B68D3400B6010BD0F4BF2E75468506845
:1026300052686302C2F3881200F03F004CBF0A4B9D
:10264000084BB3FBF0F35343044A5268C2F3014210
:1026500001325200B3FBF2F3DBE700BF0038024067
:10266000940000200024F40000127A000368134A4A
:1026700010B51A40CC680B6823434C6923438C691E
:102680002343CC6923430C6A23434C6A23438C6A5B
:1026900023434C6B23438C6B2343134303604269F6
:1026A000CB6A0C6B22F007022343134343610B698F
:1026B00043604B6883608B68C36010BD3F801CF033
:1026C0000023036043608360C360036143618361EF
:1026D000C361036243628362C362036343638363D0
:1026E0007047036819B143F001030360704723F09A
:1026F0000103FAE710B502460C4600B1012240F290
:1027000025510F48FDF7B2FF64B140F227710C4824
:102710000122FDF7ABFF4FF480410A48BDE81040AD
:10272000FFF770BD224640F227710548FDF79EFF76
:10273000012240F226610248BDE81040FDF796BF35
:102740000048004000040240F0B54FF480208BB0F8
:102750000F4601211C461646FEF786FB0121082084
:10276000FEF776FB072208213E48FFF753FD0722BC
:1027700009213C48FFF74EFD02A8FFF737FD4FF453
:1027800040730293022302A98DF80C308DF80D30AE
:102790000025012333488DF80F308DF80E50FFF7D8
:1027A000D7FC3148FDF786FE04A8FDF745FF04A9D4
:1027B0002D48FDF731FF092E06BF4FF48053ADF8C9
:1027C0001C30ADF81C504FF40053012C0697ADF8A7
:1027D0001E3007D04FF0000201D3022C3FD0ADF8DD
:1027E000202003E04FF4C063ADF82030002506A997
:1027F0000C231D48ADF822300124ADF82450FDF71C
:10280000B1FE272301A88DF804308DF805508DF80E
:1028100006508DF8074000F057F921461248FDF7A1
:1028200011FF21462046FFF765FF02A8FFF7DEFCF7
:102830004FF48046022302A90C488DF80F3002960F
:102840008DF80C408DF80D408DF80E50FFF780FC90
:1028500031460648FFF7D8FC20460BB0F0BD4FF4D8
:102860008063C1E7000C02400048004000040240C1
:1028700010B540F225511648FDF711FF38B140F26E
:1028800025511348FDF72BFF124B1B68984740F268
:1028900026610F48FDF703FF48B140F226610C485E
:1028A000FDF71DFF4FF480410B48FFF7ADFC40F2F0
:1028B00027710748FDF7F3FE48B140F2277104483D
:1028C000FDF70DFF054BBDE810401B68184710BD14
:1028D0000048004004CC002000040240FCCB002053
:1028E00008B501460248FDF7B9FE012008BD00BF4A
:1028F0000048004010B504460248FDF7B3FE2070C2
:10290000012010BD004800400B88052B70B50D4616
:102910002ED1C378027942EA0322531E9BB240F2C1
:10292000CE718B4224D80023467881782B800123F6
:1029300003702B8812F0070F4FEAD20418BF01343E
:102940000133E4B22B8044702B8841EA0621013325
:1029500001312B8089B200230230FEF71FF818B135
:10296000BDE87040FDF7C2BE2A8814442C8070BDBB
:10297000032070BD0B88052B13B51DD10379DBB97E
:10298000C478621ED2B2FD2A16D9427881788DF8B9
:102990000530FF2C08BF012341EA02218DF80430E5
:1029A000013101231A4689B201A8FDF7F7FF28B1CA
:1029B000FDF79CFE02B010BD0320FBE7FAE70B8891
:1029C000052B10B50C4624D9C378027942EA0322BC
:1029D00012F0070F4FEAD20302F1FF3118BF0133A3
:1029E000B1F5F66FDBB214D24179994211D1437837
:1029F000817841EA03210131012389B20630FDF7D4
:102A0000CDFF18B1BDE81040FDF770BE0522228051
:102A100010BD032010BD000082790168037930B534
:102A200042B3194A1568CC4325401560556803F137
:102A3000804303F59E332C4054601C682143196089
:102A400003689468D9430C409460D4682140D160F5
:102A50004179102906D1916819439160D1680B43DF
:102A6000D36030BD01F1804202F59E3211680B4304
:102A7000136030BD03F1804303F59E331A6822EAE8
:102A80000101196030BD00BF003C0140054B1A68D0
:102A90005B69034004D0024214BF0120002070474C
:102AA00018467047003C0140014B5861704700BF19
:102AB000003C014040F0BF60024B40F40030D86061
:102AC000704700BF00ED00E010B5C3780278FBB19D
:102AD000154BD96843788078C943C1F30221C1F10D
:102AE0000404E4B2A3400F2444FA01F10140DBB234
:102AF0000B430E491B018818DBB280F800335009E4
:102B0000012302F01F0203FA02F241F8202010BD57
:102B10005309012102F01F0201FA02F22033034996
:102B200041F8232010BD00BF00ED00E000E100E00F
:102B300037B501211020224CFEF78AF96846FFF7CD
:102B400055FB4FF4FE4300930025022369462046BF
:102B50008DF804308DF805308DF807308DF806506B
:102B6000FFF7F6FA204601220821FFF753FB204623
:102B700001220921FFF74EFB204601220A21FFF71F
:102B800049FB204601220B21FFF744FB204601228E
:102B90000C21FFF73FFB204601220D21FFF73AFBF6
:102BA000012220460E21FFF735FB4FF40043694612
:102BB000204600938DF80450FFF7CAFA03B030BDE9
:102BC0000010024008B501214FF48070FEF758F95B
:102BD00001210220FEF73CF901210420BDE8084054
:102BE000FEF736B908B501214FF40070FEF748F939
:102BF00001210420BDE80840FEF72AB937B5154D7C
:102C00006846FFF7F3FA0024032369462846009339
:102C10008DF804308DF80740FFF79AFA32236946A1
:102C20000D480093FFF794FA6846FFF7DFFA042394
:102C3000009302238DF805306946012328468DF85C
:102C400004308DF806408DF80740FFF781FA03B095
:102C500030BD00BF000402400008024007B56846CE
:102C6000FFF7C4FA0223009303238DF8043069466A
:102C7000002307488DF80730FFF76AFA04236946F6
:102C800004480093FFF764FA03B05DF804FB00BF4B
:102C9000000402400008024030B5012191B04FF419
:102CA0008000FEF7D5F801A8FFF70AFD144A02924A
:102CB000144A0392022205924FF4806207924FF465
:102CC00000620892104C4FF4005209924FF4807247
:102CD00000230A9201254FF4003201A920460193F6
:102CE000049306930B920C930E930F930D95FFF79D
:102CF000BDFC29462046FFF7F4FC11B030BD00BFF3
:102D00004C20014078CD0020106402402DE9F041B4
:102D10008CB0FFF757FFFFF765FFFFF76FFFFFF777
:102D20009DFFFFF7B9FF02A801240026514D524F25
:102D3000FEF710FE02A80294039604960596FEF78D
:102D4000F5FD02A8FEF7E8FD4FF0020806A92846A7
:102D500006968DF81C408DF81D40089609960A9637
:102D60008DF82C80FEF7B2FD06A938468DF81C4080
:102D70008DF81D608DF82C60FEF7A8FD22462846D0
:102D800004230E21FEF7F5FD4246042328460F21B9
:102D9000FEF7EFFD21462846FEF73FFE4146284656
:102DA000FEF770FE31462846FEF774FE28464FF4C3
:102DB0008011FEF775FE38464FF48011FEF770FE65
:102DC00041463846FEF75EFE234622462846082145
:102DD000FEF72CFE2346424628460B21FEF726FE30
:102DE0002346224638460921FEF720FE4246234666
:102DF00038460C21FEF71AFE31462846FEF756FEED
:102E000031463846FEF752FE31462846FEF757FE59
:102E100031463846FEF753FE4FF4A060FFF74AFEF6
:102E200012238DF8043001A803238DF805308DF8A6
:102E300006608DF80740FFF747FE104B4FF48022E5
:102E40001A6021462846FEF7DFFD21462846FEF798
:102E500087FD21463846FEF783FD224640F2076192
:102E60002846FEF742FE2846FEF7C9FD0CB0BDE835
:102E7000F08100BF002001400021014000E100E09E
:102E800070470000D0ED2E6A90ED2F7AD0ED307AA9
:102E9000F4EEC76AF1EE10FA88B0CBBFCDED036A4D
:102EA0008DED037A8DED027ACDED026A9DED036A18
:102EB000F4EEC67AF1EE10FA69DDCDED037A9DED00
:102EC000036ADDED025A36EE256AFEEE005A26EE62
:102ED000256A8DED046A9DED046A76EE866A9FEDA3
:102EE000536A66EE866ACDED056ADDED046A37EE5B
:102EF000267A27EE067A8DED067A9DED047A77EE36
:102F0000877A67EE867ACDED077A9DED057ADFED5B
:102F1000487ADDED056AB4EEE77AF1EE10FA40DDAD
:102F200087EEA67A8DED017A9DED017ADDED056AD9
:102F300027EE267A8DED057A9DED067ADDED066A9F
:102F4000B4EEE77AF1EE10FA39DD87EEA67A8DED70
:102F5000017A9DED017ADDED066A27EE267A8DED88
:102F6000067A9DED077AB4EEE77AF1EE10FA34DDD9
:102F7000DDED076A87EEA67A8DED017ADDED017A47
:102F80009DED077A67EE877ACDED077A2EE09DED0D
:102F9000026AF4EEC67AF1EE10FA48BFCDED027A7D
:102FA0008DE79FED247AF4EEC76AF1EE10FAC3D5EF
:102FB0009DED056AC7EE066ACDED016AB4E79FEDA7
:102FC0001D7AF4EEC76AF1EE10FACAD59DED066AD5
:102FD000C7EE066ACDED016ABBE79DED077ADFED2E
:102FE000157AB4EEE77AF1EE10FAC1D4DFED127A79
:102FF0009DED057AF0EE676AE7EE676ABDEEE67A68
:10300000F0EE676A80ED337A9DED067AE7EE676A47
:10301000BDEEE67A80ED347A9DED077AE7EE677AC9
:10302000FDEEE77AC0ED357A08B0704736CD933FB4
:1030300077BE7F3F77BE7FBF0010A44438B5114DE7
:103040002DED048BDFED109ADFED108A9FED108AD5
:103050000024B0EE089A07EE904AF8EEE77AB0EE58
:10306000480A67EEA97A013467EE897AA7EEA80AC2
:1030700000F074FEB4F5805FA5EC010AEBD1BDEC65
:10308000048B38BDEC8B00200000B43D35FA8E3C3B
:10309000DB0FC9BF2DE9F0418CB0484CFFF748FD6C
:1030A000FFF7CCFF01210846FDF7EAFE204600F0BD
:1030B000FDFA684600F0EEFB40F6412300250126AC
:1030C000694601934FF00A0820232046ADF80230EC
:1030D000ADF80060ADF808508DF80A8000F09CFB58
:1030E00007A800F0E3FC6023ADF81C3004234FF484
:1030F000A467ADF8203007A902232046ADF82E3092
:10310000ADF81E60ADF82850ADF82A50ADF82C503F
:10311000099700F0E3FB07A92046099700F016FC89
:1031200007A92046099700F051FC07A92046CDF8D1
:10313000248000F089FC2046082100F0C7FC2046CE
:10314000082100F0CBFC2046082100F0D1FC2046ED
:10315000082100F0D5FC4FF40063ADF80C304FF4BB
:103160008063ADF80E304FF48073ADF810307823E3
:10317000ADF8123003A94FF480432046ADF8183063
:10318000ADF81450ADF8165000F055FD20468021E2
:1031900000F06DFD2A462046802100F075FD314685
:1031A000204600F082FB064AD3683343D3603146A1
:1031B000204600F086FB0CB0BDE8F0810000014025
:1031C000002004E008B5FFF765FFBDE80840FFF701
:1031D0009DBDF7EE007A90ED007A77EEE07A67EE2B
:1031E000877AE0EE807AC0ED007A704730B500EB68
:1031F00081042246012399420CD880ED000A9FEDFC
:103200000B0AA0420CD107EE901AF8EEE77A80EE96
:10321000270A30BD52F8085C42F8045D0133EAE742
:10322000F0EC017A30EE270AEBE700BF0000000067
:10323000084610B5114672B6094A0A2414700722CE
:10324000FFF782FA012805D144F62060FEF7F4FF6B
:10325000012802D0032062B610BD0020FBE700BFAA
:10326000ECCB002008B572B600210120FFF742FA2E
:10327000034B0020587062B6BDE80840FDF7F8B86F
:10328000ECCB002008B572B600210846FFF732FAF1
:10329000FFF71AF862B608BDF0B572B6124D6B882A
:1032A0009BB2022B1DD96C88104EA4B200234FF69E
:1032B000FF77013CA4B2BC420ED15B4213F0FF0386
:1032C0000FD10B4C14F8016B06706888023810801F
:1032D0000C60184662B6F0BD16F801EF7344DBB21D
:1032E000E7E70520F6E700BFECCB002093CD0020F8
:1032F00094CD002070B572B6174B5D7805F0FF04D1
:1033000045BB01261E8101F8010C188912FA80F2D2
:1033100092B21A811A8992B24D1E013A11445D602F
:1033200028462246884210D1198989B2481C80B2A9
:10333000188152420948D2B20A54012100209972E0
:10334000FFF7D8F9002062B670BD10F8014B224497
:10335000D2B2E7E70520F6E7ECCB002094CD0020C1
:1033600073B53A4D0DF10700FFF7C4FA6B78DBB285
:10337000012B2E4604D05DD3022B42D0002008E062
:10338000FEF794FF9DF807203A2A04D10020E87246
:10339000688002B070BD0D2A02D102236B70EDE788
:1033A000A2F13003DBB2092B07D9A2F14103052BAF
:1033B0009ABFA2F13703DBB2FF23F27A02F0FF04D7
:1033C00072B1012CDAD17288214892B2115C0B43A0
:1033D0001354738801339BB200207380F072D8E7D6
:1033E000728892B2FF2A08D87288194992B21B01DA
:1033F000DBB253540123F372C0E77470FEF764FF2D
:10340000BCE79DF807302A7893424FF0000406D1BC
:10341000FEF75AFF01206C70FDF72AF8B9E73A2B46
:1034200006D10123EC726C806B70FEF73FFFA5E7BD
:103430006C70A3E79DF807303A2B9FD1FEF736FF5B
:10344000002001236880E8726B70A2E7ECCB0020BB
:1034500094CD002070B52D4DAB7A0026042B16D8E4
:10346000DFE803F04E030C3D43003A20FFF738FA43
:1034700000240223AB72EC72204670BD2C89A4B2EA
:103480003CB3EB7A03F0FF021BB1012A0DD00024FC
:10349000F2E76B6818780009092894BF303037309C
:1034A000FFF71EFA0123EB72F1E76B68187800F062
:1034B0000F00092894BF30303730FFF711FA6B68DE
:1034C00000240133EC726B602B89013B9BB22B8192
:1034D000D2E70D20FFF704FA0323AB72CCE728787C
:1034E000FFF7FEF90423AB72D1E70320AE72FCF7BD
:1034F000BFFF002104460120FFF7FCF8AE72BBE7D6
:1035000000210120FFF7F6F8C1E700BFECCB002057
:10351000054A08B55378013B012B9CBF002353702B
:10352000FEF7D2FE002008BDECCB0020002380ED8A
:10353000000AC0ED010A80ED021AC0ED031A4361D2
:103540000362704780ED0B0AC0ED0C0A7047D0EDA6
:10355000017A80EE270A80ED090A7047F7EE007ABB
:1035600087EE800A80ED070A7047000070EE600A5F
:1035700090ED070ADFED2E7A60EE800AF4EEE70A9E
:10358000F1EE10FA51DCDFED2B7AF4EE670AF1EE82
:1035900010FA48BFF0EE670A90ED087AD0ED097A8C
:1035A000C0ED040A30EE877AB4EEE77AF1EE10FA55
:1035B00080ED087AC8BFC0ED087A90ED087AF1EE88
:1035C000677AB4EEE77AF1EE10FA48BFC0ED087AF8
:1035D000D0ED086AD0ED017A90ED057AC0ED050ACC
:1035E00067EEA67AD0ED006AE0EEA67A30EEC77AF2
:1035F000D0ED026AE7EE267A90ED0B7AC0ED0A7AFA
:10360000F4EEC77AF1EE10FAC8BF80ED0A7AD0ED79
:103610000C7A90ED0A7AB4EEE77AF1EE10FA48BF30
:10362000C0ED0A7A90ED0A0A7047F0EE670AB3E738
:1036300077BE7F3F77BE7FBF30B5048C24F0010496
:103640002404240C0484048B058C24F0F304240447
:1036500042EA0313240C1C4325F00A031B041B0C31
:1036600041F00101A4B20B430483038430BD30B5A3
:10367000048C24F010042404240C0484058B048C92
:10368000120242EA033324F0A00225F4407512042A
:103690002D05120C2D0D42EA01111D4341F01001C0
:1036A000ADB289B20583018430BD000008B54D4B31
:1036B000984209D101210846FDF7FAFB00210120BB
:1036C000BDE80840FDF7F4BBB0F1804F09D10121FE
:1036D0000846FDF7E1FB00210120BDE80840FDF7A9
:1036E000DBBB414B984206D101210220FDF7D4FB00
:1036F00000210220F1E73D4B984206D10121042030
:10370000FDF7CAFB00210420E7E7394B984206D1B8
:1037100001210820FDF7C0FB00210820DDE7354B23
:10372000984206D101211020FDF7B6FB00211020A0
:10373000D3E7314B984206D101212020FDF7ACFBA5
:1037400000212020C9E72D4B984206D101210220FB
:10375000FDF7AEFB00210220B2E7294B984208D1C9
:1037600001214FF48030FDF7A3FB00214FF480309E
:10377000A6E7244B984208D101214FF40030FDF711
:1037800097FB00214FF400309AE71F4B984208D175
:1037900001214FF48020FDF78BFB00214FF48020A6
:1037A0008EE71A4B984206D101214020FDF774FBA9
:1037B0000021402091E7164B984206D1012180203C
:1037C000FDF76AFB0021802087E7124B984208D161
:1037D00001214FF48070FDF75FFB00214FF48070F2
:1037E0007BE708BD000001400004004000080040E5
:1037F000000C004000100040001400400004014094
:1038000000400140004401400048014000180040D1
:10381000001C0040002000401C4A038890429BB2DC
:1038200012D002F5806290420ED0B0F1804F0BD0E2
:10383000A2F58032904207D002F58062904203D018
:1038400002F58062904203D14A8823F0700313434B
:103850000F4A904208D002F5806290421FBF23F4C5
:1038600040730A899BB2134303804B68C3620B8881
:103870000385064B984203D003F58063984201D13B
:103880008B7A038601238382704700BF00000140CA
:10389000001000404FF0FF3343600023038003819A
:1038A00043808372704741627047038821B19BB2A5
:1038B00043F080030380704723F080031B041B0C3C
:1038C000F8E7038821B19BB243F0010303807047FE
:1038D00023F001031B041B0CF8E70000038C23F00A
:1038E00001031B041B0C038470B5038C8288048BBA
:1038F0000D884E8824F073042404240C2C4323F0F8
:1039000002038D891B0435431B0C2B430E4DA8422B
:1039100092B29BB203D005F58065A8420ED1CD8945
:103920004E8A23F008032B438D8823F004032B4396
:103930000D8A22F4407235432A4392B282808A680B
:1039400004834263038470BD00000140038C23F0B4
:1039500010031B041B0C038470B5038C8488028B3A
:103960000D884E8822F4E6421204120C42EA052227
:1039700023F020038D891B0435431B0C43EA0513F8
:10398000114DA842A4B292B29BB203D005F5806556
:10399000A84213D1CD894E8A23F0800343EA051350
:1039A0004FF6BF751D408B8845EA03130D8A24F43A
:1039B0004064354344EA85049BB2A4B28480028308
:1039C0008A688263038470BD00000140038C23F485
:1039D00080731B041B0C038470B5038C8288848B5A
:1039E0000D884E8824F073042404240C2C4323F403
:1039F00000738D891B0435431B0C43EA0523114DCD
:103A0000A84292B29BB203D005F58065A84213D1BB
:103A1000CD894E8A23F4006343EA05234FF6FF3530
:103A20001D408B8845EA03230D8A22F4405235431A
:103A300042EA05129BB292B282808A688483C26392
:103A4000038470BD00000140038C23F480531B04E9
:103A50001B0C038470B5038C8488828B0D884E8880
:103A600022F4E6421204120C42EA052223F4005327
:103A70008D891B0435431B0C43EA05330A4DA842CC
:103A8000A4B292B29BB203D005F58065A84205D1DD
:103A90000D8A24F4804444EA8514A4B2848082838D
:103AA0008A680264038470BD000001400023038023
:103AB0004380838083608381C38103824382704714
:103AC0004163704781637047C1637047038B23F084
:103AD00008031B041B0C194301837047038B23F459
:103AE00000631B041B0C43EA012189B20183704768
:103AF000838B23F008031B041B0C1943818370473D
:103B0000838B23F400631B041B0C43EA012189B25D
:103B10008183704700230122038043808280C38019
:103B200003817047406B7047038B23F00C031B0429
:103B30001B0C0383038B9BB2194301837047038BD8
:103B400023F440631B041B0C0383038B9BB243EAE7
:103B5000012189B201837047838B23F00C031B047E
:103B60001B0C8383838B9BB2194381837047838BA8
:103B700023F440631B041B0C8383838B9BB243EAB7
:103B8000012189B281837047F8B50E880B898A8834
:103B90000D46498836B9FFF74FFDE988BDE8F84082
:103BA000FFF7C2BF042E06D1FFF761FDE988BDE82B
:103BB000F840FFF7C4BF082EEF88058C1CD125F410
:103BC00080752D042D0C0584868B058CB6B226F0ED
:103BD000F3063243ADB242EA031325F4206242F405
:103BE000807242EA01229BB292B2838339460284F8
:103BF000BDE8F840FFF7B0BF25F480552D042D0C2B
:103C00000584868B058C1B0343EA022326F4407649
:103C100045F6FF722A403605360D42F48052334392
:103C200042EA01329BB292B2838339460284BDE8F4
:103C3000F840FFF79CBF4A880B8813438A881343D8
:103C4000CA8813430A8913434A8913438A89134351
:103C50009BB2A0F844307047038A828911EA0300BE
:103C600092B203D0114214BF012000207047C94313
:103C700089B20182704783899BB212B11943818155
:103C8000704723EA0101FAE7FFF7F5BF70B506892F
:103C9000048B058C24F4407424F0030425F02205E1
:103CA00026F0070624042D043604240C2D0C42EAC9
:103CB0000313360C44F480741D43314344F0010473
:103CC000ADB201810483058470BD000000B510EE23
:103CD000103A204A23F00043934283B019DDB3F138
:103CE000FF4F04DB30EE400A03B05DF804FB68468A
:103CF00000F0D4F800F0030001281AD002280FD0F9
:103D000000B30120DDED010A9DED000A00F028FE60
:103D1000EAE7DFED110A00F059FA03B05DF804FBA1
:103D2000DDED010A9DED000A00F050FAB1EE400A07
:103D3000DAE7DDED010A9DED000A00F011FEB1EEBB
:103D4000400AD1E7DDED010A9DED000A00F03EFAE0
:103D5000CAE700BFD80F493F0000000000B510EED1
:103D6000103A214A23F00043934283B01ADDB3F1A5
:103D7000FF4F04DB30EE400A03B05DF804FB6846F9
:103D800000F08CF800F0030001281DD0022811D0AB
:103D900008B3DDED010A9DED000A00F017FAB1EE5F
:103DA000400AE9E70020DFED110A00F0D9FD03B079
:103DB0005DF804FB0120DDED010A9DED000A00F035
:103DC000CFFDB1EE400AD7E7DDED010A9DED000A17
:103DD00000F0FCF9D0E70120DDED010A9DED000ABD
:103DE00000F0BEFDC8E700BFD80F493F000000004B
:103DF00010B52DED028B8AB0B0EE408A00F096F936
:103E0000244B93F90040631C09D0B4EE488AF1EECC
:103E100010FA04D6B5EEC08AF1EE10FA03D40AB057
:103E2000BDEC028B10BD01231B4A009318EE100A53
:103E300000230192089301F005F80022CDE9040166
:103E4000CDE902010023BCB11046194601F078F912
:103E5000022CCDE9060111D101F0AAFA2123036059
:103E6000089B8BB9DDE9060101F052FA00EE100A59
:103E70000AB0BDEC028B10BDCDE90623684600F008
:103E8000B7FD0028ECD1E7E701F092FA089B036048
:103E9000E8E700BFA80000207C59000870B510EECC
:103EA000103A944A23F00044944286B0054668DDF7
:103EB000914A944210EE106A1ADC002BDFED8F7AE3
:103EC0008F4A24F00F0440F3DD80944270EE677A4D
:103ED00066D09FED8C7A77EEC76A012077EEE67A9E
:103EE000C5ED006A77EEC77AC5ED017A06B070BD00
:103EF000854A944266DDB4F1FF4F49DAE215863A0D
:103F0000A4EBC25307EE903ABDEEE77ADFED7F6A8D
:103F1000B8EEC77A77EEC77A8DED037A67EEA67AA8
:103F2000BDEEE77AB8EEC77A77EEC77A8DED047A00
:103F300067EEA67AF5EE407AF1EE10FACDED057A4D
:103F400040F0B380B5EE407AF1EE10FA0CBF0123D9
:103F500002236F4901910221009103A8294600F034
:103F6000B7F9002E12DA95ED007AD5ED017AB1EEAF
:103F7000477AF1EE677A404285ED007AC5ED017A25
:103F800004E0002285ED000A4260002006B070BD0A
:103F900070EE407A0020C5ED017AC5ED007AF5E7B4
:103FA000DFED5C6A9FED5C7A77EEE67A012077EED2
:103FB000C76A77EEE67AC5ED006A77EEC77AC5ED97
:103FC000017AE3E700F016FDDFED546ADFED4B5AAE
:103FD000DFED4C7AB6EE007AA0EE267ABDEEC77A17
:103FE000F8EEC76A17EE100AB1EE666A1F28A6EE51
:103FF000250A66EEA77A1DDC494A411E24F0FF031C
:1040000052F82120934215D030EE677A85ED007A80
:1040100030EE470A002E30EE670A85ED010AB5DA68
:10402000B1EE477AB1EE400A85ED007A85ED010ADE
:104030004042ABE730EE677AE41517EE103AC3F36F
:10404000C753E31A082BE1DDDFED327A9FED327AB8
:10405000F0EE405AE6EE275A30EE650AA6EE270A41
:10406000F0EE407AD6EE877A35EEE77A17EE103A20
:10407000C3F3C753E41A192C2CDC85ED007AB0EE9B
:10408000650AC5E7944270EE277A10D09FED1D7A3D
:1040900077EE876A4FF0FF3077EEE67AC5ED006A7B
:1040A00077EE877AC5ED017A70E7032351E7DFEDFC
:1040B000196A9FED197A77EEA67A4FF0FF3077EE06
:1040C000876A77EEE67AC5ED006A77EE877AC5ED06
:1040D000017A5BE79FED137A9FED135AB0EE650A04
:1040E000A6EE070A75EEC07AE6EE077AD6EE857A76
:1040F0008AE700BFD80F493FE3CB1640800FC93F86
:10410000D00FC93F43443537800F494300008043F7
:10411000045A00080044353708A3852E84F9223F4D
:104120008459000800A3852E32318D2410EE103AF8
:1041300023F00042B2F1FF4F31D27AB3002B3DDBC6
:10414000B2F5000F70B44FEAE3502BD3A0F17F0219
:10415000C3F31603D10743F4000348BF5B000024F8
:1041600056105B00254619214FF08072A81898421E
:1041700002DC1B1A8518144401394FEA43034FEA45
:104180005202F3D113B1013424F00104641004F19C
:104190007C5404EBC65370BC00EE103A7047A0EE9E
:1041A000000A704713F4000201D00CE00A465B00DD
:1041B0001C0202F10101F9D5801AC7E770EE407ABE
:1041C00087EEA70A70474FF0FF32F5E710EE103A7E
:1041D00023F00043B3F1485F2CDAFDEEC07A17EE0E
:1041E000903A002B60D020EE007ADFED314A9FED4F
:1041F000315ADFED315A9FED316ADFED317ADFED73
:10420000316AA7EE245AE7EE055AA7EE256AE7EED3
:10421000067AE7EE276A66EE876A60EEC00AB6EEB7
:10422000006AE7EE260AF7EE007AD7EE060A37EEC6
:10423000E00A704720EE007ADFED1D4A9FED1D5A1F
:10424000DFED1D5A9FED1D6ADFED1D7ADFED1D6A62
:104250001D4AA7EE245A9342E7EE055AA7EE256AB7
:10426000E7EE067AE7EE276A66EE876AD5DD174A3B
:10427000934214DC03F17F4307EE903AB7EE006AF5
:1042800036EE676A60EEC00AF6EE005AE7EE260ADE
:10429000D7EE257A77EEE07A36EE670A7047B6EE0B
:1042A000076AF5EE027AEDE7B7EE000A704700BF45
:1042B0004ED747ADF6740F317CF293B4010DD03771
:1042C000610BB6BAABAA2A3D9999993E0000483FC6
:1042D0002DE9F04F2DED048BD9B003F1FF3A049393
:1042E000D31E48BF131DD44C669D0291DB1023EAF8
:1042F000E373194654F8256006930133A2EBC30318
:104300000193A1EB0A0316EB0A01814616D4194466
:104310009FEDCA7A679801311CAA002BA4BF50F800
:10432000234007EE904A03F10103ACBFF8EEE77AB1
:10433000F0EE477A8B42E2EC017AEED1002EC0F229
:104340000783049B44AD9C00771C1CAB05EB8707DF
:10435000181909EB0401BAF1000FC0F27582DFED04
:10436000B77A4B460246F3EC016A32ED017A8B4292
:10437000E6EE877AF7D1E5EC017ABD4200F1040060
:10438000E9D106F18043013B9B0008AD1A1FAA1832
:10439000B3460396DFEDAB8A9FEDA98A019E079293
:1043A0004C4405EB030844AF4FEA8B0358AA1A4468
:1043B000BBF1000F12ED140A18DD07A907EB8B0201
:1043C00060EE287AB0EE407AFDEEE77A72ED016A8F
:1043D000F8EEE77ABA42A7EEC87A37EEA60ABDEE43
:1043E000C77A17EE100A41F8040FE9D13046059359
:1043F00000F050FBB0EE409AB4EE000A29EE000A3D
:1044000000F000FBF2EE007AA0EE679A002E059B0A
:10441000FDEEC99AF8EEE97A39EE679A40F3C98061
:104420000BF1FF3EC6F1080255F82E1041FA02F0DA
:1044300000FA02F2891A45F82E1019EE90EA864425
:10444000C6F1070209EE90EA1141002951DD19EE8B
:10445000902ABBF1000F02F1010209EE902A40F30D
:1044600012822A68002A40F06982BBF1010F40F3F2
:104470002982AE4601205EF8042F002A00F01E8239
:1044800000F1010EC2F58072F34545F8202012DDDF
:1044900055F82E200230C2F1FF02834545F82E2048
:1044A00009DD05EB8000EA180368C3F1FF0340F85B
:1044B000043B9042F8D1002E0DDD012E4FF0010299
:1044C00040F0E7810BF1FF3055F8203003F07F0317
:1044D00045F82030E7E102290BD1F7EE007A37EEFC
:1044E000C99A3046B7EE000A00F0D4FA39EE409A85
:1044F0000221B5EE409AF1EE10FA70D1039B0BF158
:10450000FF3E73450EDC0BF18042013A05EB82025F
:10451000002052F80439424540EA0300F9D100284E
:1045200040F09480039B013B55F82330002B40F072
:10453000D381079B4FF0010C53F804290CF1010CB7
:10454000002AF9D0DC440BF1010EE6452FDC069A77
:10455000049B0EEB020103EB0B000CEB02031CAA05
:1045600001F1804102EB8000679A013902EB810181
:1045700007EB8E0E02EB830B51F8043F07EE903AE7
:10458000F8EEE77ABAF1000FE0EC017ADFED2B7A72
:1045900009DB4B460246F3EC016A32ED017AA34295
:1045A000E6EE877AF7D15945EEEC017AE4D1E3469D
:1045B000FAE605D10BF1FF3255F82210091244E753
:1045C000F6EE007AB4EEE79AF1EE10FA80F2468148
:1045D000B5EE409AF1EE10FA4FF000018ED0019C3A
:1045E000039EB0EE490A6042884600F053FA9FED00
:1045F000147AB4EEC70AF1EE10FAC0F28581DFED4D
:10460000117A60EE277A2346FDEEE77A0833F8EE5A
:10461000E77A0193A7EEC70A0BF10103FDEEE77AF3
:10462000BDEEC00A10EE102A45F82B2017EE902A96
:1046300045F823201FE000BF485D0008000000008F
:10464000000080430000803B0000C93F884601997C
:1046500055F82E20039E0839734601915AB90EF180
:104660008042013A05EB820252F80409013B083905
:104670000028F9D0019101980393B7EE000A00F0E9
:1046800009FA039B002BC0F24A819F0044AAD0196B
:1046900007F1040E1FED157A05EB0E02011D72EDF8
:1046A000017AF8EEE77AAA4267EE807A20EE070AEE
:1046B00061ED017AF3D11FED1C6A05460DF5867C8C
:1046C0000024002EC0F2DC80A348DFEDA47A294646
:1046D000B0EE467A002203E0A24208DCB0EC017A98
:1046E000F1EC016A01329642E7EE267AF4DA043DF3
:1046F00058AA02EB8402654542ED287A04F10104D0
:10470000DFD1669A032A5AD8DFE802F08C6262028F
:10471000002B40F3018158AA3A4430A912ED287ABF
:104720003A1D0A4431A8394451ED017A77EE876A7F
:1047300077EEE67A77EE877AB0EE667A62ED017A06
:10474000824261ED016AEFD1012B40F3E58058AB65
:104750003B4430AA13ED287A3B1D32A917441A4472
:1047600057ED017A77EE876A77EEE67A77EE877A09
:10477000B0EE667A62ED017A914267ED016AEFD19F
:1047800030A9DFED767A0B4433ED017A9A4277EE69
:10479000877AF9D14346002B00F0AE80DDED306A18
:1047A0009DED317A029AF1EE677AF1EE666AB1EE2A
:1047B000477AC2ED027AC2ED006A82ED017A19EE03
:1047C000903A03F0070059B0BDEC048BBDE8F08FC0
:1047D0003A1D30A9DFED617A0A4432ED017A8A424E
:1047E00077EE877AF9D14246002A78D0DDED306A3B
:1047F000029AB1EE677A002B76EEE77A82ED007AC4
:104800000ADD31A90122B1EC017A0132934277EE3F
:10481000877AF8DA43460BB1F1EE677A029BC3ED73
:10482000017ACCE730ABDFED4D7A9E443EED017A64
:10483000734577EE877AF9D143460BB1F1EE677A8B
:10484000029BC3ED007ABAE7DFED447AE5EC017A2A
:10485000BD4200F104007FF47EAD92E519EE902A8E
:10486000BBF1000F02F1010209EE902AC8BF02213C
:104870003FF7F7ADF7EE007A37EEC99A022138E636
:10488000DFED367A33E7002E1EDD0022012E3FF4E5
:1048900019AE022E07D10BF1FF3055F8203003F08E
:1048A0003F0345F8203002297FF423AEF7EE007A6B
:1048B00037EEC99A002A3FF41CAE12E60130834558
:1048C0007FF4D9AD002EE1DC02297FF412AEF7EEC1
:1048D000007A37EEC99A0CE64FF0010C32E69DEDF6
:1048E000307A029A002BC2ED007A77EE677A88DC84
:1048F000029BC3ED017A62E70298309A319BC0EDCA
:10490000027A026043605AE7BDEEC00A5B4610EED1
:10491000102A45F82B20AEE6DFED107A3AE7669ACA
:10492000032A3FF64CAF01A151F822F04B49000891
:104930004549000845490008194900084FF0010E93
:1049400000209FE5DFED057A4DE7DFED047A73E7A0
:10495000049B9C0015E500BF205D000800000000DE
:1049600010EE103A23F00043B3F1485F04DAFDEE95
:10497000C07A17EE903A23B360EE007A9FED155A95
:10498000DFED155A9FED156ADFED156A9FED157A7B
:10499000E7EE855A20EE275AA7EEA56AE7EE866A6B
:1049A000A7EEA67A70B127EE457AF6EE006AA0EE81
:1049B000A67ADFED0D6AD7EE870AE5EE260A30EE1D
:1049C000600A7047DFED096AE7EE876AA5EE260AFE
:1049D000704700BFD3C92E2F342FD7B21BEF383604
:1049E000010D50B98988083CABAA2A3EABAA2ABE61
:1049F0000020704710EE103A23F0004300EE103A0A
:104A0000704700BF10EE102A22F00041CB0D7F3B13
:104A1000162B17DC002B10EE100A19DB1A4919416E
:104A20000A4222D0DFED197A70EE277AF5EEC07ACD
:104A3000F1EE10FA19DD002A18DB20EA010300EE7E
:104A4000103A7047B1F1FF4F0FD330EE000A7047B4
:104A5000DFED0E7A70EE277AF5EEC07AF1EE10FAFD
:104A600003DD002A08DB9FED0A0A70474FF40002BD
:104A700042FA03F31844E0E70029FFEE007A18BF7A
:104A8000B0EE670A704700BFFFFF7F00CAF24971AE
:104A90000000000008B510EE103A33F000422DED92
:104AA000028B11D0B2F1FF4F11D2B2F5000F13D328
:104AB000D20D0244FE2A2EDC002A1ADD23F0FF4329
:104AC00043EAC25300EE103ABDEC028B08BDBDECC8
:104AD000028B30EE000A08BD1D4BDFED1E7A9842B6
:104AE00020EE270A22DB10EE103AC3F3C752193A20
:104AF000DFE712F1160F1EDA4CF2503398420ADC4F
:104B00009FED158AF0EE400AB0EE480A00F02AF850
:104B100020EE080AD8E79FED118AF0EE400AB0EEC9
:104B2000480A00F01FF820EE080ACDE7DFED0A0A78
:104B300020EE200AC8E7193223F0FF4343EAC253AC
:104B4000DFED077A00EE103A20EE270ABCE700BF3F
:104B5000B03CFFFF0000004C6042A20DCAF2497158
:104B60000000003310EE103A10EE902A23F00043BC
:104B700002F00042134300EE103A704781F000410A
:104B800002E000BF83F0004330B54FEA41044FEA32
:104B9000430594EA050F08BF90EA020F1FBF54EACD
:104BA000000C55EA020C7FEA645C7FEA655C00F069
:104BB000E2804FEA5454D4EB5555B8BF6D420CDD3A
:104BC0002C4480EA020281EA030382EA000083EABD
:104BD000010180EA020281EA0303362D88BF30BD5D
:104BE00011F0004F4FEA01314FF4801C4CEA1131B3
:104BF00002D0404261EB410113F0004F4FEA033312
:104C00004CEA133302D0524263EB430394EA050F9C
:104C100000F0A780A4F10104D5F1200E0DDB02FA0B
:104C20000EFC22FA05F2801841F1000103FA0EF29F
:104C3000801843FA05F359410EE0A5F120050EF165
:104C4000200E012A03FA0EFC28BF4CF0020C43FA96
:104C500005F3C01851EBE37101F0004507D54FF0A3
:104C6000000EDCF1000C7EEB00006EEB0101B1F5F3
:104C7000801F1BD3B1F5001F0CD349085FEA300039
:104C80004FEA3C0C04F101044FEA445212F5800F44
:104C900080F09A80BCF1004F08BF5FEA500C50F1E1
:104CA000000041EB045141EA050130BD5FEA4C0CC4
:104CB000404141EB010111F4801FA4F10104E9D14D
:104CC00091F0000F04BF01460020B1FA81F308BF44
:104CD0002033A3F10B03B3F120020CDA0C3208DD10
:104CE00002F1140CC2F10C0201FA0CF021FA02F1EB
:104CF0000CE002F11402D8BFC2F1200C01FA02F15B
:104D000020FA0CFCDCBF41EA0C019040E41AA2BF7F
:104D100001EB0451294330BD6FEA04041F3C1CDA47
:104D20000C340EDC04F11404C4F1200220FA04F067
:104D300001FA02F340EA030021FA04F345EA030111
:104D400030BDC4F10C04C4F1200220FA02F001FAD3
:104D500004F340EA0300294630BD21FA04F0294655
:104D600030BD94F0000F83F4801306BF81F48011EE
:104D70000134013D4EE77FEA645C18BF7FEA655C61
:104D800029D094EA050F08BF90EA020F05D054EA33
:104D9000000C04BF1946104630BD91EA030F1EBF38
:104DA0000021002030BD5FEA545C05D1400049413C
:104DB00028BF41F0004130BD14F580043CBF01F52F
:104DC000801130BD01F0004545F0FE4141F4700115
:104DD0004FF0000030BD7FEA645C1ABF19461046F0
:104DE0007FEA655C1CBF0B46024650EA013406BFF1
:104DF00052EA033591EA030F41F4002130BD00BFB0
:104E000090F0000F04BF0021704730B54FF480646C
:104E100004F132044FF000054FF0000150E700BFED
:104E200090F0000F04BF0021704730B54FF480644C
:104E300004F1320410F0004548BF40424FF0000139
:104E40003EE700BF42004FEAE2014FEA31014FEA7C
:104E500002701FBF12F07F4393F07F4F81F06051CB
:104E6000704792F0000F14BF93F07F4F704730B53A
:104E70004FF4607401F0004521F0004120E700BFCD
:104E800050EA010208BF704730B54FF000050AE054
:104E900050EA010208BF704730B511F0004502D555
:104EA000404261EB41014FF4806404F132045FEA57
:104EB000915C3FF4DCAE4FF003025FEADC0C18BFFC
:104EC00003325FEADC0C18BF033202EBDC02C2F1F2
:104ED000200300FA03FC20FA02F001FA03FE40EA84
:104EE0000E0021FA02F11444C1E600BF70B54FF084
:104EF000FF0C4CF4E06C1CEA11541DBF1CEA135566
:104F000094EA0C0F95EA0C0F00F0DEF82C4481EACD
:104F1000030621EA4C5123EA4C5350EA013518BFED
:104F200052EA033541F4801143F4801338D0A0FBDA
:104F300002CE4FF00005E1FB02E506F00042E0FB87
:104F400003E54FF00006E1FB03569CF0000F18BF8D
:104F50004EF0010EA4F1FF04B6F5007F64F5407435
:104F600004D25FEA4E0E6D4146EB060642EAC621C8
:104F700041EA55514FEAC52040EA5E504FEACE2E35
:104F8000B4F1FD0C88BFBCF5E06F1ED8BEF1004F38
:104F900008BF5FEA500E50F1000041EB045170BDB4
:104FA00006F0004646EA010140EA020081EA0301F8
:104FB000B4EB5C04C2BFD4EB0C0541EA045170BDF4
:104FC00041F480114FF0000E013C00F3AB8014F16E
:104FD000360FDEBF002001F0004170BDC4F10004B7
:104FE000203C35DA0C341BDC04F11404C4F1200538
:104FF00000FA05F320FA04F001FA05F240EA020093
:1050000001F0004221F0004110EBD37021FA04F6C8
:1050100042EB06015EEA430E08BF20EAD37070BD82
:10502000C4F10C04C4F1200500FA04F320FA05F0E1
:1050300001FA04F240EA020001F0004110EBD370E3
:1050400041F100015EEA430E08BF20EAD37070BD53
:10505000C4F1200500FA05F24EEA020E20FA04F32C
:1050600001FA05F243EA020321FA04F001F00041DB
:1050700021FA04F220EA020000EBD3705EEA430E4C
:1050800008BF20EAD37070BD94F0000F0FD101F07B
:105090000046400041EB010111F4801F08BF013CB4
:1050A000F7D041EA060195F0000F18BF704703F0F2
:1050B0000046520043EB030313F4801F08BF013D79
:1050C000F7D043EA0603704794EA0C0F0CEA135535
:1050D00018BF95EA0C0F0CD050EA410618BF52EAEF
:1050E0004306D1D181EA030101F000414FF00000F5
:1050F00070BD50EA410606BF1046194652EA430603
:1051000019D094EA0C0F02D150EA013613D195EA76
:105110000C0F05D152EA03361CBF104619460AD1BE
:1051200081EA030101F0004141F0FE4141F47001C8
:105130004FF0000070BD41F0FE4141F4780170BDB8
:1051400070B54FF0FF0C4CF4E06C1CEA11541DBF1D
:105150001CEA135594EA0C0F95EA0C0F00F0A7F81F
:10516000A4EB050481EA030E52EA03354FEA01314C
:1051700000F088804FEA03334FF0805545EA13135F
:1051800043EA12634FEA022245EA111545EA106527
:105190004FEA00260EF000419D4208BF964244F1BE
:1051A000FD0404F5407402D25B084FEA3202B61ADD
:1051B00065EB03055B084FEA32024FF480104FF4B1
:1051C000002CB6EB020E75EB030E22BFB61A754625
:1051D00040EA0C005B084FEA3202B6EB020E75EBB8
:1051E000030E22BFB61A754640EA5C005B084FEA20
:1051F0003202B6EB020E75EB030E22BFB61A7546ED
:1052000040EA9C005B084FEA3202B6EB020E75EBF7
:10521000030E22BFB61A754640EADC0055EA060EB8
:1052200018D04FEA051545EA16754FEA06164FEAFB
:10523000C30343EA52734FEAC2025FEA1C1CC0D1A7
:1052400011F4801F0BD141EA00014FF000004FF034
:10525000004CB6E711F4801F04BF01430020B4F1F5
:10526000FD0C88BFBCF5E06F3FF6AFAEB5EB030CAD
:1052700004BFB6EB020C5FEA500C50F1000041EBAA
:10528000045170BD0EF0004E4EEA113114EB5C0477
:10529000C2BFD4EB0C0541EA045170BD41F480114A
:1052A0004FF0000E013C90E645EA060E8DE60CEA52
:1052B000135594EA0C0F08BF95EA0C0F3FF43BAF6F
:1052C00094EA0C0F0AD150EA01347FF434AF95EA26
:1052D0000C0F7FF425AF104619462CE795EA0C0F0A
:1052E00006D152EA03353FF4FDAE1046194622E7D7
:1052F00050EA410618BF52EA43067FF4C5AE50EAB1
:1053000041047FF40DAF52EA43057FF4EBAE12E7A0
:105310004FEA4102B2F1E04324BFB3F5001CDCF1D7
:10532000FE5C0DD901F0004C4FEAC0024CEA50700F
:10533000B2F1004F40EB830008BF20F0010070473E
:1053400011F0804F21D113F13872BCBF01F0004041
:10535000704741F480114FEA5252C2F11802C2F173
:10536000200C10FA0CF320FA02F018BF40F00100F4
:105370004FEAC1234FEAD32303FA0CFC40EA0C00A6
:1053800023FA02F34FEA4303CCE77FEA625307D1E3
:1053900050EA01331EBF4FF0FE4040F4400070471A
:1053A00001F0004040F0FE4040F40000704700BFB4
:1053B000014B1868704700BFAC000020844641EAEA
:1053C000000313F003036DD1403A41D351F8043B7D
:1053D00040F8043B51F8043B40F8043B51F8043BCF
:1053E00040F8043B51F8043B40F8043B51F8043BBF
:1053F00040F8043B51F8043B40F8043B51F8043BAF
:1054000040F8043B51F8043B40F8043B51F8043B9E
:1054100040F8043B51F8043B40F8043B51F8043B8E
:1054200040F8043B51F8043B40F8043B51F8043B7E
:1054300040F8043B51F8043B40F8043B51F8043B6E
:1054400040F8043B51F8043B40F8043B403ABDD2DD
:10545000303211D351F8043B40F8043B51F8043B7F
:1054600040F8043B51F8043B40F8043B51F8043B3E
:1054700040F8043B103AEDD20C3205D351F8043B0E
:1054800040F8043B043AF9D2043208D0D2071CBFDA
:1054900011F8013B00F8013B01D30B880380604603
:1054A000704700BF082A13D38B078DD010F0030379
:1054B0008AD0C3F10403D21ADB071CBF11F8013BE9
:1054C00000F8013B80D331F8023B20F8023B7BE738
:1054D000043AD9D3013A11F8013B00F8013BF9D263
:1054E0000B7803704B7843708B78837060467047FD
:1054F00070B4860746D0541E002A41D0CAB2034673
:1055000002E014F1FF343BD303F8012B9D07F8D1DF
:10551000032C2ED9CDB245EA05250F2C45EA0545C9
:1055200019D903F110022646103E0F2E42F8105CE6
:1055300042F80C5C42F8085C42F8045C02F110028C
:10554000F2D8A4F1100222F00F0204F00F0410327E
:10555000032C13440DD91E462246043A032A46F86A
:10556000045BFAD8221F22F003020432134404F031
:1055700003042CB1C9B21C4403F8011B9C42FBD1AB
:1055800070BC704714460346C2E700BF024B13B11C
:10559000024800F005B8704700000000AD55000853
:1055A000002301461A46184600F01EB838B50A4CCA
:1055B0000A4D641BA4100AD004F18043013B05EBA3
:1055C0008305013C55F804399847002CF9D1BDE812
:1055D000384000F071B800BFE8040020E404002067
:1055E000704700BF704700BF2DE9F8432C4D0646B9
:1055F000286898460F469146FFF7F2FF294B1C6832
:10560000D4F84831002B3ED05A681F2A1CDC02F126
:10561000010E76B103EB82010124C1F88890D3F822
:10562000880194402043022EC3F88801C1F8088104
:1056300023D00232C3F804E0286843F82270FFF751
:10564000D1FF0020BDE8F883174B0BB34FF4C870AF
:10565000AFF300800346D8B1D4F84821026000219E
:1056600041600A46C4F848014FF0010EC0F88811A5
:10567000C0F88C11002EDCD0CCE7D3F88C110C4391
:10568000C3F88C41D5E704F5A673C4F84831BBE7ED
:105690002868FFF7A7FF4FF0FF30BDE8F88300BF91
:1056A000D8040020545D000800000000F8B500BFD9
:1056B000F8BC08BC9E467047F8B500BFF8BC08BCF3
:1056C0009E467047000204040404040600C18140A1
:1056D00001C0804101C0804100C1814001C08041C2
:1056E00000C1814000C1814001C0804101C08041B2
:1056F00000C1814000C1814001C0804100C18140A2
:1057000001C0804101C0804100C1814001C0804191
:1057100000C1814000C1814001C0804100C1814081
:1057200001C0804101C0804100C1814000C1814071
:1057300001C0804101C0804100C1814001C0804161
:1057400000C1814000C1814001C0804101C0804151
:1057500000C1814000C1814001C0804100C1814041
:1057600001C0804101C0804100C1814000C1814031
:1057700001C0804101C0804100C1814001C0804121
:1057800000C1814000C1814001C0804100C1814011
:1057900001C0804101C0804100C1814001C0804101
:1057A00000C1814000C1814001C0804101C08041F1
:1057B00000C1814000C1814001C0804100C18140E1
:1057C00001C0804101C0804100C1814000C0C101D1
:1057D000C30302C2C60607C705C5C404CC0C0DCD61
:1057E0000FCFCE0E0ACACB0BC90908C8D81819D9D1
:1057F0001BDBDA1A1EDEDF1FDD1D1CDC14D4D51501
:10580000D71716D6D21213D311D1D010F03031F1F0
:1058100033F3F23236F6F737F53534F43CFCFD3D20
:10582000FF3F3EFEFA3A3BFB39F9F83828E8E92910
:10583000EB2B2AEAEE2E2FEF2DEDEC2CE42425E5C0
:1058400027E7E62622E2E323E12120E0A06061A130
:1058500063A3A26266A6A767A56564A46CACAD6DE0
:10586000AF6F6EAEAA6A6BAB69A9A86878B8B97950
:10587000BB7B7ABABE7E7FBF7DBDBC7CB47475B580
:1058800077B7B67672B2B373B17170B05090915170
:105890009353529296565797559594549C5C5D9DA0
:1058A0005F9F9E5E5A9A9B5B995958988848498990
:1058B0004B8B8A4A4E8E8F4F8D4D4C8C4484854540
:1058C0008747468682424383418180400000000032
:1058D00000000000FF030000AA06000055090000B8
:1058E000FF0B0000AA0E00000000000000000500F1
:1058F0000300040001000600020000000000000098
:1059000000000000AA02000055050000FF0700008B
:10591000AA0A0000550D0000000000000000000071
:10592000AA02000055050000FF070000AA0A0000B7
:10593000550D0000FF0F00000000000000000000F7
:10594000000000003C00000078000000B4000000EF
:10595000F00000002C01000000000000000000002A
:105960003C00000078000000B4000000F0000000DF
:105970002C010000680100000000000073717274C7
:1059800066000000000FC93F000F494000CB964061
:10599000000FC9400053FB4000CB164100ED2F41E2
:1059A000000F49410031624100537B41003A8A4176
:1059B00000CB9641005CA34100EDAF41007EBC41AD
:1059C000000FC94100A0D5410031E24100C2EE41C3
:1059D0000053FB4100F20342003A0A4200831042A6
:1059E00000CB164200141D42005C234200A5294250
:1059F00000ED2F4200363642007E3C4200C7424254
:105A0000000F4942A2000000F900000083000000DE
:105A10006E0000004E000000440000001500000071
:105A200029000000FC0000002700000057000000D3
:105A3000D1000000F500000034000000DD0000008F
:105A4000C0000000DB0000006200000095000000C4
:105A5000990000003C00000043000000900000009E
:105A600041000000FE000000510000006300000043
:105A7000AB000000DE000000BB000000C50000001D
:105A800061000000B7000000240000006E0000006C
:105A90003A000000420000004D000000D20000006B
:105AA000E000000006000000490000002E00000099
:105AB000EA00000009000000D10000009200000090
:105AC0001C000000FE0000001D000000EB000000B4
:105AD0001C000000B100000029000000A700000029
