:020000040800F2
:10000000A08D0020710700086D0700086D0700082B
:100010006D0700086D0700086D070008000000006C
:100020000000000000000000000000006D07000854
:100030006D070008000000006D0700086D0700084C
:100040006D0700086D0700086D0700086D070008C0
:100050006D0700086D0700086D0700086D070008B0
:100060006D0700086D0700086D0700086D070008A0
:10007000832800086D0700086D0700086D07000859
:100080006D0700086D070008790F00086D0700086C
:100090006D0700086D0700086D0700086D07000870
:1000A0006D0700086D0700086D0700086D07000860
:1000B0006D0700086D070008A11B00086D07000808
:1000C0006D0700086D0700086D0700086D07000840
:1000D0006D0700086D0700086D0700083D21000846
:1000E000311800086D0700086D0700086D0700084B
:1000F0006D0700086D0700086D0700086D07000810
:100100006D0700086D0700086D0700086D070008FF
:100110006D0700086D0700086D0700086D070008EF
:100120006D0700086D0700086D0700086D070008DF
:100130006D0700086D0700086D0700086D070008CF
:100140006D0700086D0700086D0700086D070008BF
:100150006D0700086D0700086D0700086D070008AF
:100160006D0700086D0700086D0700086D0700089F
:100170006D0700086D0700086D0700086D0700088F
:100180006D0700086D07000810B5054C237833B9DA
:10019000044B13B10448AFF300800123237010BD5A
:1001A000EC04002000000000304B00080C4B43B171
:1001B0000C480D4910B5AFF300800C48036823B913
:1001C00010BD0A48036833B97047094B002BF7D0BC
:1001D000BDE810401847064B002BF5D0184700BF6C
:1001E00000000000304B0008F0040020E80400206C
:1001F0000000000001F0030301F0FC0101F1804167
:1002000001F59C3110B58A689B000F249C4022EABE
:1002100004028A608A6898401043886010BD00001C
:1002200070B505460846441EE4B2F62C11461A463F
:100230009DF8103004D81E4C20701DB1012D1FD028
:1002400002241BE01B4E66601B4EA6601B4EE66040
:100250001B4E656126611B4C1B4D25601B4C1C4DC4
:1002600025601C4C1C4D256001F0AEFC044628B9ED
:1002700000F0F6F8D0B1194B01221A70204670BD7B
:10028000174D6560174DA560174DE560174D256149
:10029000002565610B4C164D25600C4C154D2560F5
:1002A0000C4C154D256002F083FBDFE70324E5E7E6
:1002B00008050020051C0008211C00087D1C000802
:1002C000351C00085C830020E51C000854830020D6
:1002D0004D1D000858830020A51D000800000020C7
:1002E000E5290008052A0008752A0008192A0008CF
:1002F000E12A0008D52B0008912C000810B5064C07
:100300002378012B05D1054B5B68984700202070AE
:1003100010BD062010BD00BF000000200805002011
:10032000F7B5314D2C78002C5CD10DF1070000F0B1
:10033000A7F80128034601D0002405E09DF8072016
:10034000012A04D0022A19D0204603B0F0BD274D5F
:100350002B6905F1180205F11C0105F120009847F1
:1003600004460028E8D195F820302A789A4201D036
:10037000002BE1D1022000F07BF8E5E71B4AD069B1
:1003800082F82230017882F8211023462F1D14466E
:1003900017F83360DA003EB1B1421FD11544144959
:1003A000AB68984784F8220094F82030002BC3D023
:1003B00094F8222062B10123238394F82130E1696B
:1003C00063F07F030B70238BE169581C2083CA54B0
:1003D000E368228BE16920789847ADE70133102B61
:1003E000D6D1E1E70624AFE7000000200805002091
:1003F000200500200B88052B70B50D462DD1C37844
:10040000027942EA0322531E9BB240F2CE718B4224
:1004100023D80023467881782B80022303702B8811
:1004200012F0070F4FEAD20418BF01340133E4B2CF
:100430002B8044702B8841EA0621013301312B8047
:1004400089B2023000F0DCFB18B1BDE8704000F06A
:100450004DB92A8814442C8070BD032070BD000063
:10046000024B00221A700120704700BF2B050020AC
:10047000024A012350701370184670472B05002064
:10048000044A137823B153780370002313700123B7
:10049000184670472B05002038B50D4604490C8CD2
:1004A00001302246013403F089FE2C80002038BD43
:1004B0002E05002008B5254B984209D101211020B6
:1004C00000F02CFC00211020BDE8084000F026BC04
:1004D0001F4B98420BD101214FF4003000F012FC69
:1004E00000214FF40030BDE8084000F00BBC194B70
:1004F000984208D101214FF4802000F003FC002134
:100500004FF48020EFE7144B984208D101214FF4BB
:10051000002000F0F7FB00214FF40020E3E70F4B31
:10052000984208D101214FF4801000F0EBFB00212C
:100530004FF48010D7E70A4B984206D101212020C2
:1005400000F0ECFB00212020BEE708BD00100140B8
:100550000044004000480040004C00400050004073
:1005600000140140028A30B50D4692B2EB888989A9
:1005700022F440521A4302828389044623F4B05283
:100580002889AB880343688922F00C0203431204D4
:10059000120C9BB21343A381A38A9BB223F4407332
:1005A0000B4385B0A382684600F044FB194B9C4284
:1005B00003D003F580639C4222D10399A38913F4ED
:1005C000004F2B684FF0190214BF5B009B004A4399
:1005D000B2FBF3F1A28964251204B1FBF5F34FEAF3
:1005E000031005FB13130DD5DA003232B2FBF5F21E
:1005F00002F0070242EA00039BB2238105B030BD3E
:100600000299DBE71B013233B3FBF5F303F00F0371
:100610000343F1E700100140038A9BB223F47062A8
:1006200010B50B884C8823438C88C98823430B431F
:100630009BB21343038210BD002303804380838059
:10064000C3807047838921B19BB243F400538381F7
:10065000704723F400531B041B0CF8E7C1F3080197
:10066000818070478088C0F30800704710B5C1F3DF
:10067000421401F01F03012C4FF0010101FA03F1B4
:1006800005D10C3003683AB11943016010BD022C4A
:100690000CBF10301430F5E723EA0101F5E7C1F390
:1006A000421210B5012301F01F04012A03FA04F3DA
:1006B0000ED1828992B21340028892B26BB10123AB
:1006C000090A03FA01F10A4214BF1846002010BDBE
:1006D000022A0CBF028A828AECE7184610BD0B0A78
:1006E00001219940C94389B20180704707289ABF08
:1006F000014B185C04207047C444000830B5094C15
:1007000040F6FE732268834022EA030291E8280043
:100710002B438D68C9682B430B4303FA00F0104349
:10072000206030BD0074004000230360436083609C
:10073000C3607047064A012321B1116883400B430F
:10074000136070471168834021EA0303F8E700BF94
:10075000007400400828044B0CBF42EA012242EA20
:100760000142C250704700BF20740040FEE7000005
:100770000D4A0E4B0E498B4210D30E480E494FF0D6
:1007800000028842B8BF40F8042BFADBDFF82C00E7
:10079000016841F47001016000F04CB952F8040F97
:1007A00043F8040BE7E700BF2C4B000800000020D3
:1007B000EC040020EC040020A085002088ED00E07F
:1007C00008B50B88052B0FD14378817841EA0321C6
:1007D000013101231A4689B2033000F0D7F928B15C
:1007E000BDE80840FFF782BF032008BD08BD0B88A5
:1007F000052B10B50C461DD9C378027942EA0322B5
:10080000531E772B16D853004179DBB2994211D190
:100810004378817841EA03210131012389B206300E
:1008200000F0B4F918B1BDE81040FFF75FBF052232
:10083000228010BD032010BDF8B50B88052B0C4697
:1008400024D1027995B26B1E7C2B1FD8032600237E
:1008500047788178238006702688520001362680EA
:100860004270228841EA072101320131228089B297
:100870002A46023000F08AF918B1BDE8F840FFF7C7
:1008800035BF228802EB45052580F8BD0320F8BD61
:100890002DE9F8430B88092B04460D463CD9C37853
:1008A000077947EA03277B1E7C2B38D8C379027A65
:1008B00042EA0322531E782B31D8437AB3EB420F1E
:1008C0002DD14379817990F80190867841EA03210E
:1008D0000131012389B20A3000F058F9034608BB00
:1008E0001722288022702A884FEA470801322A807E
:1008F00084F801802A8846EA0921013201312A80E0
:1009000089B23A46A01C00F041F958B92B889844A6
:10091000A5F80080BDE8F8830020BDE8F883032037
:10092000BDE8F883BDE8F843FFF7E0BE2DE9F341E9
:100930000121084600F0C2F96846012401F0BAF826
:10094000002502264FF40043694636480093364F8F
:100950008DF804408DF806508DF807508DF805602D
:1009600001F05AF82146304600F0A8F9684601F037
:10097000A1F84FF400536946384600938DF80540BE
:100980008DF8045001F048F8684601F093F84FF4F0
:100990001048694638468DF804408DF80540CDF87A
:1009A00000808DF806508DF8076001F035F841465B
:1009B000384601F08DF82146042000F07FF96846A2
:1009C00001F078F840236946184800938DF80540F7
:1009D0008DF804508DF8076001F01EF821460820BC
:1009E00000F06CF9684601F065F88DF804408DF868
:1009F00005400F4C8DF806504FF440636946204681
:100A000000938DF8076001F007F820464FF48061ED
:100A100001F05CF84FF40061204601F057F802B095
:100A2000BDE8F081000002400004024000080240DE
:100A3000000C02402DE9FF4101F0CAF9002401F049
:100A400043FAFFF773FF454800F0A2F900944FF412
:100A5000E133224601212046FFF7E2FB08B9FFF708
:100A60004DFC3F48DFF820E13E4E3F4D44820023DD
:100A700064211A4604461F4603970398704568D9B7
:100A8000308812FA80F22888013913FA80F3F3D102
:100A90003649374F374D384E6420B3FBF0F34B6087
:100AA0000123B2FBF0F2A3610A604FF40041384623
:100AB00001F010F800F008FE8046B4F9120000F0D2
:100AC000A3FE264AD2ED0B7AFDEEE77A17EE903AB6
:100AD000D2ED097A2380FDEEE77AE26917EE903ACB
:100AE00063804FF08043596AA4F80880521AA280AC
:100AF000224A60811288224A1288A2F2FF72E280A2
:100B0000204A526AA2815A6A5B6AE2811B0C2382E4
:100B1000FFF706FC284600F0D6FF8046304600F07E
:100B2000D2FF00F04000002814BF012200220ED0A6
:100B3000236A012B0BD0636A18F4005F14BF03F122
:100B4000FF3301336362616A0A234B43E36122622C
:100B5000ABE70398013003908FE700BF6883002064
:100B6000500500206084002078840020840000204C
:100B7000000002400004024000080240728400208D
:100B800076840020000400409F86010030B549F6BD
:100B90004044A1422ED98D1849F64C44A54229DC87
:100BA000A3B1012B1AD1144B03EB4101A1F59C31E8
:100BB0008439023092B110F8024C10F8013C013A2D
:100BC00043EA042321F8023F92B2F2E70A4B03EB17
:100BD0004101A1F59C31843902300AB9002030BDB1
:100BE00031F8023F00F8013C1C0A013A00F8024CBF
:100BF00092B2F1E7012030BD50050020012070477E
:100C0000012070470120704730B5FF23084D014493
:100C10001C46884202D143EA042030BD10F8012B63
:100C20005A40AB5C2A44634092F80041F1E700BFB0
:100C3000CC4400081D4A936803F00C03042B10B544
:100C40001AD0082B1AD01A4B184A03609368194916
:100C5000C3F30313CC5C0368E34043609468C4F3BC
:100C600082240C5D23FA04F484609268C2F3423259
:100C70008A5CD340C36010BD0F4BE5E754685168F0
:100C800052686302C2F3881201F03F014CBF0A4B65
:100C9000074BB3FBF1F35343044A5268C2F30142DA
:100CA00001325200B3FBF2F3CEE700BF003802403E
:100CB0000024F4008C00002000127A00044B1A6B10
:100CC00011B110431863704722EA0000FAE700BF31
:100CD00000380240044B1A6C11B11043186470477D
:100CE00022EA0000FAE700BF00380240044B5A6CC9
:100CF00011B110435864704722EA0000FAE700BFC0
:100D000000380240044B1A6A11B110431862704750
:100D100022EA0000FAE700BF00380240044B5A6A9A
:100D200011B110435862704722EA0000FAE700BF91
:100D30000038024030B587B0684600F0BBFE0124A1
:100D4000302300256946114800938DF804408DF842
:100D5000075000F061FE21464FF00050FFF7BAFF48
:100D600002A8FFF7E1FC02A92846FFF7C7FC02A989
:100D70001020FFF7C3FC21462846FFF7DBFC214685
:100D80001020FFF7D7FC07B030BD00BF00000240C5
:100D900038B5414C2DED088BC4220021054620605A
:100DA00003F0A6FA3D4BC5F8B430DFED3D8A3D4D6A
:100DB0009FED3D8ADFED3D9ADFED3D1ADFED3D0A07
:100DC0009FED3DBADFED3DAA9FED3DAA9FED3D9A17
:100DD000B0EE681A2846B6EE000A01F067FFF0EEA2
:100DE000480AB0EE690A284601F06CFF2846B6EEC4
:100DF000000A01F06CFF28469FED330A01F06EFFF8
:100E00002068F0EE4B1AB0EE681AF0EE6A0AB0EE07
:100E10004A0A303001F04AFF20689FED2C0AF0EEBC
:100E2000480A303001F04EFF2068B6EE000A30303C
:100E300001F04DFF2068B0EE490A303001F04EFF5E
:100E40002068F0EE4B1AB0EE681AF0EE6A0AB0EEC7
:100E50004A0A643001F02AFF2068F0EE480AB0EE3A
:100E6000690A643001F02EFF2068B6EE000A643093
:100E700001F02DFF2068B0EE490A643001F02EFF2A
:100E800000F0DEFB00F010FD01F0F4FCBDEC088B7F
:100E9000BDE83840FFF74EBF780500200000204233
:100EA000000000002C84002077BE7FBF77BE7F3F0C
:100EB0006F12833A6F12833BF701803F0AD7A33B3F
:100EC000CDCCCC3E00E0FF440000C842A4707D3F82
:100ED00013B507EE901AF8EEE77A0446C0ED007AF3
:100EE0000846019100F088FD019884ED010A00F0A8
:100EF0008BFD84ED020A02B010BD0000D0ED047A33
:100F0000D0ED056AC0ED067AB0EE007AE6EE877A9B
:100F10009FED037A67EE877AC0ED077A704700BFCE
:100F20003ACD133FD0ED075AD0ED016A90ED066A35
:100F3000D0ED027A25EEA67AA6EE277A67EEA57A9C
:100F400080ED087AE6EE667AC0ED097A7047D0ED5A
:100F5000275AD0ED016A90ED266AD0ED027A26EE8E
:100F6000E57AA6EE277A67EEA57A80ED287AE6EE96
:100F7000267AC0ED297A70472DE9F04F2DED048BCC
:100F8000BE4CBF488BB0042100F0A0FD23685A0777
:100F900010D51421204600F0C9FABA4B1821188048
:100FA000204600F0C3FAB84B40F2074118802046B3
:100FB00000F0D5FAB54C23685B0710D51421204604
:100FC00000F0B4FAB24B18211880204600F0AEFAB7
:100FD000B04B40F207411880204600F0C0FAAE4CFA
:100FE000DFF8A082636A0193A362236A02936362BB
:100FF000E36903932362A3690493E361236962684D
:10100000B8F800B0D4F814C0D4F808A06361194649
:10101000E36CD4F80C90A260059323655A44A36C4A
:101020000693E3645244636CC4F818C00793C4F891
:101030001090C4F80CA0C4F804B04A44A364236C14
:1010400008930A4463640499E36A276B0993624432
:1010500023638F4B666BB3F800E0099BA56BE06BD5
:1010600020640A440399E5630A440299A663734421
:101070000A443B440199676333444FF00A0C0A4425
:101080002B4492FBFCF2A8F80020089AC4F82CE04C
:1010900003441344079A1344069A1344059A1344CD
:1010A00093FBFCFC7A4BA3F800C07C4B1B68002B25
:1010B00000F03181636D8BB1A36D226807EE903A29
:1010C000F8EEE77AB3F5FA6FC2ED0B7AA5BF744A72
:1010D000002301336365B4BFA3655362D4F8549011
:1010E0009FED709AB9F1000F40F0138100F0F6FA0D
:1010F0004FF08042D2ED090AE26FC4F88020A26F5F
:10110000E267626FA267226F6267E26E2267A26E79
:10111000E266626EA266644B226ED4F8A410D4F824
:101120009C60D4F898706266D4F894E0E26DD4F8CC
:1011300090C01B6822660546D4F8A000C4ED170ACB
:10114000C4F8A810C4F8A400C4F8A060C4F89C7047
:10115000C4F898E0C4F894C0D4F8AC20D4F88C80DB
:10116000D4F888A0D4F884B0C4F890800132102A52
:10117000C4F88CA0C4F888B0C4F88430C4F8AC209B
:101180001DD15B4453449844C444E64477443E44F0
:10119000304401440A2091FBF0F300EE103A22683B
:1011A00042480192F8EEE00AB8EEC00A01F09EFD56
:1011B000019AC4F8AC9020EE090A82ED0B0A314B7B
:1011C0003B4A1B88126820689B1A07EE903A394AFE
:1011D0002F4B12681B889B1AF8EEE78A07EE903AAD
:1011E0002946B8EEE78AFFF773FE2568C5ED048A45
:1011F00085ED058A2846FFF781FED5ED077AF1EEE9
:10120000677AC5ED077A2846FFF78CFED5ED080A08
:1012100095ED0A0A05F1300001F068FD85ED260A1A
:101220002568D5ED090A95ED0B0A05F1640001F07A
:101230005DFD236885ED270A1846FFF788FEDFED80
:101240001E6A93ED287AD3ED297A27EE267A67EE87
:10125000A67A83ED287AC3ED297A184601F012FBAD
:1012600023681648D3F8B81001F0EAFF2368134842
:10127000D3F8BC1001F0E6FF22E000BF00200140DF
:10128000000402406084002072840020002101409C
:1012900078840020768400207805002068050020EE
:1012A0000004004000E0FF446C0500202C84002076
:1012B0008400002088000020D7B35D3F000001407B
:1012C00023681748D3F8C01001F0BEFF2368D3EDA0
:1012D000097A77EE897AB2EE047AFCEEE77A00209A
:1012E000CDED017AD3ED007ABDF8042067EE877A60
:1012F000FCEEE77ACDED027ABDF80810FFF72AFA86
:10130000084804210BB0BDEC048BBDE8F04F00F0A1
:10131000DFBB002553E70BB0BDEC048BBDE8F08FBD
:10132000000001400004024043680A7923F0407342
:1013300023F4807343EA02230A6813434360CA68B4
:101340000B6913438A6810B513438468084A224026
:1013500013434A7943EA420383600A7DC36A013A30
:1013600023F47003D2B243EA0253C36210BD00BF3C
:10137000FDF7FFC000230360037143718360C36006
:10138000036101230375704790E80C00064910B50E
:1013900013434C68054A2240134382681343C268D2
:1013A00013434B6010BD00BF00230140E030FCFF41
:1013B0000023036043608360C3607047836819B192
:1013C00043F001038360704723F00103FAE7092922
:1013D00070B51BD9A1F10A04C56804EB44040726C3
:1013E000A64025EA060503FA04F42C43C460062A45
:1013F00018D8013A436B02EB82021F24944023EA7F
:10140000040301FA02F21A43426370BD056901EB5D
:1014100041060724B44025EA040503FA06F42C43E8
:101420000461E4E70C2A0CD8073A036B02EB820252
:101430001F24944023EA040301FA02F21A430263D0
:1014400070BD0D3AC36A02EB82021F24944023EA66
:10145000040391401943C16270BD836843F0804327
:1014600083607047836819B143F480738360704769
:1014700023F48073FAE7836819B143F4007383603F
:10148000704723F40073FAE7092970B51CD9A1F15C
:101490000A04C56804EB44040726A64025EA0605AD
:1014A00003FA04F42C43C460836B0232C3F3015487
:1014B000121BD2B202EB82021F24944023EA0403DF
:1014C00091401943816370BD056901EB4106072412
:1014D000B44025EA040503FA06F42C430461E3E76B
:1014E000836B013923F4401343EA0153836370474C
:1014F000836823F47023194381607047836823F461
:101500004013194381607047436819B143F4806305
:101510004360704723F48063FAE7436819B143F4EA
:1015200080534360704723F48053FAE782B000236E
:1015300001930190019B283319440191019B186884
:1015400080B202B070470123C9B203FA01F14368C7
:1015500012B119434160704723EA0101FAE76FEACB
:101560001121016070470B88052B70B50C4624D102
:10157000C378027942EA0322531E7B2B1DD8002335
:101580004678817823800423037023885500013333
:1015900023804570238841EA0621013301312380ED
:1015A00089B20230FFF72EFB18B1BDE87040FFF79B
:1015B0009DB822881544258070BD032070BD0000B1
:1015C000F0B5012187B00820FFF778FB01214FF427
:1015D0008040FFF78BFB04A800F06CFA0024012583
:1015E0004FF40046032704A9144804968DF81440CC
:1015F0008DF816408DF817508DF8157000F00CFA24
:101600000F213846FEF7F6FD0C2302A88DF80D30A9
:1016100002968DF80E508DF80C4000F063FE2823E2
:1016200001A88DF804308DF805408DF806408DF83E
:10163000075000F0AFFE07B0F0BD00BF000C024045
:1016400007B501210820FFF739FB684600F032FAA0
:101650004FF4E043009300238DF804308DF80630FA
:101660008DF807306946022303488DF8053000F0F5
:10167000D3F903B05DF804FB000C0240014489B2C9
:1016800008B2B0F5B47F04DDA1F5B47108B280B240
:1016900070470028FBDA01F5B471F7E708B509488F
:1016A00000F011FA10F4805F14BF0423002310F43B
:1016B000005FC0F3803014BF0222002218431043A1
:1016C00008BD00BF000C024008B5FFF7E7FF024B62
:1016D00033F8100008BD00BFCC46000813B5204CFD
:1016E000FFF7F2FF21688842034612D0012803D198
:1016F000062905D100220AE0062801D101292CD0B3
:10170000184A980002448B428CBF1269126B16482B
:101710004262154A506AE1B907EE900A9FED137ACA
:10172000F8EE677A1E2167EE877AFDEEE77ACDED57
:10173000017ABDF90400FFF7A1FF07EE900A9FEDC3
:101740000C7AF8EEE77A67EE877AFCEEE77A17EE26
:10175000900A80B2236002B010BD40F69F72D6E7B7
:1017600028060020CC46000800040040EC51B83D9B
:101770008FC2314110B51F4CFFF7A6FF6168884248
:1017800002461DD0012803D1062905D100230AE015
:10179000062801D101292AD0174B900003448A4220
:1017A0008CBF1B6D1B6F9FED157A07EE903AF8EE1C
:1017B000677A134B67EE877AFCEEE77AC3ED097A16
:1017C0000F4B9FED107AD3ED097AF8EE677A67EE4A
:1017D000877AFCEEE77A17EE900A19B91E2100B25B
:1017E000FFF74CFFC0F5B470626080B210BD4FF4DB
:1017F000B473D8E728060020CC4600081CC7314146
:1018000000040040EC51B83D10B50446FFF7B2FFAC
:10181000204483B218B2B0F5B47F04DDA3F5B473ED
:1018200018B280B210BD0028FBDA03F5B473F7E7F5
:1018300008B54FF4004000F08FFD28B14FF4004090
:10184000BDE8084000F096BD08BD000070B5124E1E
:10185000124D2DED048B9FED129ADFED128A4FF49D
:101860007A6407EE904AB8EEE78A28EE098A28EEF5
:10187000288AB0EE480A01F039FEA6EC010AB0EE63
:10188000480A01F0EBFD14F1FF34A5EC010AE8D29F
:10189000BDEC048B70BD00BF30060020B4440020B6
:1018A000EC51B83D35FA8E3C2DE9F04188B06846E0
:1018B00000F000F902A801F0EDFC05A801F0AAFB78
:1018C00001210846FFF7FAF901210220FFF7F6F996
:1018D0000121DFF82081444C0846FFF7FBF9012184
:1018E0000220FFF7F7F90126022503276946404643
:1018F0008DF804508DF80760009700F08DF83023C4
:1019000069462046009300F087F86023694637480F
:10191000009300F081F832464046002100F0DEF8E6
:1019200032463146404600F0D9F82A462046042186
:1019300000F0D4F82A4620462D4D0521002400F061
:10194000CDF84FF0FF3305A94FF080400693ADF876
:101950001440ADF81C40ADF8164001F01DFB40F6F8
:101960009F7305A92846069301F016FB23462246DD
:1019700039464FF0804001F052FD22462346394659
:10198000284601F04CFD0F2302A94FF08040ADF82E
:101990001030ADF80840ADF80E4001F0B3FC02A9DC
:1019A000284601F0AFFC042302A94FF08040ADF8B7
:1019B000083001F0A7FC02A9284601F0A3FC31463B
:1019C0004FF0804001F03DFB3146284601F039FBE5
:1019D000FFF7F6FD4FF080435C626C62FFF736FF65
:1019E00008B0BDE8F08100BF0004024000100240D2
:1019F0000004004000000240024B03EB800090ED29
:101A0000020A704728060020024B03EB800090ED8D
:101A1000000A7047B44400202DE9F0430D6800220D
:101A20000126032406FA02FC3CEA05033DD15700D7
:101A3000D0F800E004FA07F3DB430EEA030EC0F827
:101A400000E091F804E0D0F800900EFA07F80EF1EB
:101A5000FF3E48EA0908BEF1010FC0F8008017D820
:101A6000D0F808E003EA0E0383604B79D0F808E071
:101A7000BB4043EA0E038360436823EA0C034360E0
:101A80008B79D0F804E093409BB243EA0E034360A5
:101A9000C36804FA07FE23EA0E03C360CB79D0F8CB
:101AA0000CE0BB4043EA0E03C3600132102AB9D1F7
:101AB000BDE8F0834FF6FF730360002303714371A9
:101AC0008371C3717047006980B2704701837047AA
:101AD00041837047436959404161704701F00703F2
:101AE000C90800EB810010B5016A9B000F249C40DF
:101AF00021EA04010162016A9A400A43026210BDB0
:101B000030B5012185B01A4D04460420FFF7E2F8F4
:101B1000013C01A801F07EFA41F26703029401A999
:101B200000242846ADF80430ADF80C40ADF806406E
:101B300001F032FA01210F4801F057FC0122114651
:101B4000284601F05FFC1E238DF801406846012401
:101B50008DF800308DF802408DF8034000F01AFC3B
:101B60002846214601F06DFA204605B030BD00BF81
:101B7000000800400010004010B5054C0021204630
:101B800001F051FA20460121BDE8104001F059BA98
:101B9000000800400021014801F053BA000800404D
:101BA00010B50121064801F015FC40B1012104489F
:101BB00001F01BFC034BBDE810401B68184710BD2B
:101BC000000800405883002010B50846144672B63D
:101BD0000822214600F01EFA01280CD1B4F5964FD8
:101BE00097BF074823206400B0FBF4F080B2FFF7F2
:101BF00087FF012802D0032062B610BD0020FBE75A
:101C0000A07F170008B572B6044B0021012019709F
:101C100000F0D6F9FFF7B0FF62B608BD38830020A8
:101C200008B572B60021084600F0CAF9FFF7B2FF06
:101C300062B608BD2DE9F04180460E46174672B6E1
:101C40000C4D6B889BB2032B03D8052062B6BDE810
:101C5000F0816988084C89B22046FEF7D5FF00283C
:101C6000F3D114F8012B698888F8002003393980F2
:101C70003460EBE7388300207A84002038B50346CF
:101C800072B6164C2578EDB2012D25D1258101F8CB
:101C9000013C238912FA83F292B22281481E2189E3
:101CA000606089B2FEF7B0FF23890D499BB25A1CD0
:101CB00092B22281C2B2CA5423899BB25A1C92B2F8
:101CC000C0F307202281C85400202946A57200F0E5
:101CD00077F9002062B638BD0520FBE73883002085
:101CE0007A84002007B50DF1070000F069FA154B62
:101CF0001A78032A20D8DFE802F01D02101D002206
:101D00005A805A889DF8070092B2511C89B25980B6
:101D10000D49885402221A700CE05A8892B2FF2AA8
:101D20000ED85A8892B2511C89B25980064B9DF840
:101D300007109954FFF720FF002003B05DF804FB63
:101D40000322E8E7388300207A840020F8B5144C99
:101D5000A37A03F0FF071BB1012F06D000261CE079
:101D60003946012000F02CF9F8E72589ADB25DB1C4
:101D70006368187800F01AFA636801336360238996
:101D8000013B9BB22381E9E70320FEF771FB294663
:101D90000646384600F014F9A5723046F8BD00BF7B
:101DA0003883002038B5094C227802F0FF0022B1B8
:101DB000022801D0002503E00120FEF759FB05466B
:101DC000FFF7E8FE01232370284638BD3883002042
:101DD000374AD2F8883043F47003C2F88830354B64
:101DE0001A68002142F001021A6099601A6822F014
:101DF000847222F480321A602F4A5A601A6882B0C4
:101E000022F480221A60D960009101911A6842F48C
:101E100080321A6019461A6802F400320192009A60
:101E200001320092019A1AB9009AB2F5A06FF2D16C
:101E30000B6813F4003318BF01230193019B012B9E
:101E400005D01B4B4FF000629A6002B07047194BEF
:101E50001A491A6C42F080521A640A6842F48042AD
:101E60000A609A689A609A6842F400429A609A6896
:101E700042F4A0529A60124A5A601A6842F0807284
:101E80001A601A689201FCD50E4A40F20561116091
:101E90009A6822F003029A609A6842F002029A60FD
:101EA000044A936803F00C03082BFAD1C9E700BF7A
:101EB00000ED00E0003802401030002400700040C7
:101EC00008544007003C0240174A1849936803F041
:101ED0000C03042B10B50DD0082B0DD0144B0B6048
:101EE000114B9B68C3F303130B441A790B68D3405F
:101EF0000B6010BD0F4BF2E75468506852686302E4
:101F0000C2F3881200F03F004CBF0A4B084BB3FBF2
:101F1000F0F35343044A5268C2F3014201325200C3
:101F2000B3FBF2F3DBE700BF003802409C00002067
:101F30000024F40000127A000368134A10B51A4016
:101F4000CC680B6823434C6923438C692343CC69D9
:101F500023430C6A23434C6A23438C6A23434C6B10
:101F600023438C6B2343134303604269CB6A0C6B9E
:101F700022F007022343134343610B6943604B681C
:101F800083608B68C36010BD3F801CF0002303603A
:101F900043608360C360036143618361C361036223
:101FA00043628362C362036343638363704703686E
:101FB00019B143F001030360704723F00103FAE70E
:101FC00010B502460C4600B1012240F225510F48DF
:101FD000FEF74CFB64B140F227710C480122FEF77A
:101FE00045FB4FF480410A48BDE81040FFF76EBD45
:101FF000224640F227710548FEF738FB012240F2E5
:1020000026610248BDE81040FEF730BB00480040A2
:1020100000040240F0B54FF480208BB00F46012140
:102020001C461646FEF756FE01210820FEF746FE26
:10203000072208213E48FFF751FD072209213C48AD
:10204000FFF74CFD02A8FFF735FD4FF440730293F4
:10205000022302A98DF80C308DF80D3000250123E4
:1020600033488DF80F308DF80E50FFF7D5FC31480E
:10207000FEF720FA04A8FEF7DFFA04A92D48FEF7C0
:10208000CBFA092E06BF4FF48053ADF81C30ADF8E3
:102090001C504FF40053012C0697ADF81E3007D0AA
:1020A0004FF0000201D3022C3FD0ADF8202003E016
:1020B0004FF4C063ADF82030002506A90C231D485D
:1020C000ADF822300124ADF82450FEF74BFA272357
:1020D00001A88DF804308DF805508DF806508DF864
:1020E000074000F057F921461248FEF7ABFA2146A7
:1020F0002046FFF765FF02A8FFF7DCFC4FF480469F
:10210000022302A90C488DF80F3002968DF80C407E
:102110008DF80D408DF80E50FFF77EFC31460648D5
:10212000FFF7D6FC20460BB0F0BD4FF48063C1E74B
:10213000000C0240004800400004024010B540F28C
:1021400025511648FEF7ABFA38B140F22551134835
:10215000FEF7C5FA124B1B68984740F226610F48FC
:10216000FEF79DFA48B140F226610C48FEF7B7FA37
:102170004FF480410B48FFF7ABFC40F22771074852
:10218000FEF78DFA48B140F227710448FEF7A7FA2E
:10219000054BBDE810401B68184710BD00480040C3
:1021A0005C830020000402405483002008B50146EF
:1021B0000248FEF753FA012008BD00BF0048004066
:1021C00010B504460248FEF74DFA2070012010BDFC
:1021D000004800400B88052B70B50D462ED1C37802
:1021E000027942EA0322531E9BB240F2CE718B4227
:1021F00024D80023467881782B80012303702B8814
:1022000012F0070F4FEAD20418BF01340133E4B2D1
:102210002B8044702B8841EA0621013301312B8049
:1022200089B200230230FEF7E9FC18B1BDE8704026
:10223000FEF75CBA2A8814442C8070BD032070BD60
:102240000B88052B13B51DD10379DBB9C478621E49
:10225000D2B2FD2A16D9427881788DF80530FF2C4C
:1022600008BF012341EA02218DF804300131012326
:102270001A4689B201A8FEF7C1FC28B1FEF736FA6A
:1022800002B010BD0320FBE7FAE70B88052B10B561
:102290000C4624D9C378027942EA032212F0070FD0
:1022A0004FEAD20302F1FF3118BF0133B1F5F66FE7
:1022B000DBB214D24179994211D14378817841EA55
:1022C00003210131012389B20630FEF797FC18B1D2
:1022D000BDE81040FEF70ABA0522228010BD032097
:1022E00010BD000082790168037930B542B3194A04
:1022F0001568CC4325401560556803F1804303F50C
:102300009E332C4054601C68214319600368946814
:10231000D9430C409460D4682140D16041791029A0
:1023200006D1916819439160D1680B43D36030BDE9
:1023300001F1804202F59E3211680B43136030BDFB
:1023400003F1804303F59E331A6822EA0101196004
:1023500030BD00BF003C0140054B1A685B6903407B
:1023600004D0024214BF0120002070471846704775
:10237000003C0140014B5861704700BF003C0140E8
:1023800040F0BF60024B40F40030D860704700BF9F
:1023900000ED00E010B5C3780278FBB1154BD968A9
:1023A00043788078C943C1F30221C1F10404E4B247
:1023B000A3400F2444FA01F10140DBB20B430E4964
:1023C0001B018818DBB280F800335009012302F0AA
:1023D0001F0203FA02F241F8202010BD5309012127
:1023E00002F01F0201FA02F22033034941F82320D0
:1023F00010BD00BF00ED00E000E100E037B50121B5
:102400001020224CFEF75AFC6846FFF753FB4FF4AE
:10241000FE43009300250223694620468DF80430D0
:102420008DF805308DF807308DF80650FFF7F4FA77
:10243000204601220821FFF751FB204601220921F5
:10244000FFF74CFB204601220A21FFF747FB2046FD
:1024500001220B21FFF742FB204601220C21FFF74E
:102460003DFB204601220D21FFF738FB01222046CB
:102470000E21FFF733FB4FF40043694620460093DB
:102480008DF80450FFF7C8FA03B030BD00100240C9
:102490002DE9F0418CB0494CFFF7B0FF012108460F
:1024A000FEF724FC204600F0C1FC684600F0B2FDB7
:1024B00040F6412300250126694601934FF00A08A2
:1024C00020232046ADF80230ADF80060ADF808508A
:1024D0008DF80A8000F060FD07A800F0A7FE6023D9
:1024E000ADF81C3004234FF4A467ADF8203007A9E1
:1024F00002232046ADF82E30ADF81E60ADF828500E
:10250000ADF82A50ADF82C50099700F0A7FD07A9A7
:102510002046099700F0DAFD07A92046099700F048
:1025200015FE07A92046CDF8248000F04DFE204678
:10253000082100F08BFE2046082100F08FFE204687
:10254000082100F095FE2046082100F099FE4FF486
:102550000063ADF80C304FF48063ADF80E304FF4EB
:102560008073ADF810300523ADF8123003A94FF495
:1025700080432046ADF81830ADF81450ADF8165031
:1025800000F017FF2046802100F02FFF2A4620464A
:10259000802100F037FF2046702100F035FF3146E2
:1025A000204600F042FD064AD3683343D3603146EB
:1025B000204600F046FD0CB0BDE8F081000001406F
:1025C000002004E008B501214FF48070FEF78EFB77
:1025D00001210220FEF772FB01210420BDE8084022
:1025E000FEF76CBB08B501214FF40070FEF77EFBCF
:1025F00001210420BDE80840FEF760BB37B5154D4A
:102600006846FFF757FA00240323694628460093DB
:102610008DF804308DF80740FFF7FEF93223694644
:102620000D480093FFF7F8F96846FFF743FA0423D3
:10263000009302238DF805306946012328468DF862
:1026400004308DF806408DF80740FFF7E5F903B038
:1026500030BD00BF000402400008024007B56846D4
:10266000FFF728FA0223009303238DF8043069460C
:10267000002307488DF80730FFF7CEF90423694699
:1026800004480093FFF7C8F903B05DF804FB00BFEE
:10269000000402400008024030B5012191B04FF41F
:1026A0008000FEF70BFB01A8FFF770FC144A0292B2
:1026B000144A0392022205924FF4806207924FF46B
:1026C00000620892104C4FF4005209924FF480724D
:1026D00000230A9201254FF4003201A920460193FC
:1026E000049306930B920C930E930F930D95FFF7A3
:1026F00023FC29462046FFF75AFC11B030BD00BF2D
:102700004C20014062840020106402402DE9F04119
:102710008CB0FFF757FFFFF765FFFFF76FFFFFF77D
:102720009DFFFFF7B9FF02A8012400264E4D4F4F31
:10273000FEF73EFE02A80294039604960596FEF765
:1027400023FE02A8FEF716FE4FF0020806A928464F
:1027500006968DF81C408DF81D40089609960A963D
:102760008DF82C80FEF7E0FD06A938468DF81C4058
:102770008DF81D608DF82C60FEF7D6FD22462846A8
:1027800004230E21FEF723FE4246042328460F2190
:10279000FEF71DFE21462846FEF76DFE41462846FF
:1027A000FEF79EFE41463846FEF79AFE2346224635
:1027B00028460821FEF768FE2346424628460B219C
:1027C000FEF762FE2346224638460921FEF75CFEEC
:1027D0004246234638460C21FEF756FE314628462F
:1027E000FEF786FE28464FF48011FEF787FE31463D
:1027F0002846FEF789FE31463846FEF785FE31460B
:102800002846FEF78AFE31463846FEF786FE4FF42C
:10281000A060FFF7B5FD12238DF8043001A8032353
:102820008DF805308DF806608DF80740FFF7B2FD92
:102830000F4B4FF480221A6021462846FEF712FE05
:1028400021462846FEF7BAFD21463846FEF7B6FD7A
:10285000224640F207612846FEF775FE2846FEF73D
:10286000FCFD0CB0BDE8F0810020014000210140DA
:1028700000E100E008B5FFF70BFEBDE80840FFF7F8
:1028800045BF70479FED477AD0ED287ADFED466A65
:1028900067EE877AF0B567EEA67AFDEEE77A17EE77
:1028A000903AD0ED297A67EEC77AB6EE007AFDEE5F
:1028B000E77A17EE901A5C1807EE904AF8EEE77A7E
:1028C000CB1A67EE877AFDEEE77A17EE904A07EEAD
:1028D000903AF8EEE77A002C67EE877AFDEEE77A19
:1028E00017EE903A2BDA002B32DB0029CCBF4FF0E9
:1028F000030E4FF0040E012505FA0EF515F0480FF2
:102900003ED115F0240F29D115F0120F10D001F58A
:10291000A462D21A07EE902AF8EEE76ADFED237A76
:10292000E6EE877AFDEEE77A17EE902A9F187E1A78
:10293000C0F8B820C0F8BC70C0F8C060F0BD002B73
:1029400009DA0029CCBF4FF0010E4FF0060ED2E796
:102950004FF0050ECFE74FF0020ECCE704F5A4626E
:10296000D21A07EE902AF8EEE76ADFED107AE6EE6B
:10297000877AFDEEE77A17EE902A9F18161BD7E7A5
:1029800004F5A4635B1A07EE903AF8EEE76ADFED10
:10299000077AE6EE877AFDEEE77A17EE902A161BA5
:1029A0008F19C5E700102445D7B3DD3F000024444C
:1029B000084610B5114672B6094A0A241470072257
:1029C000FFF728FB012805D144F62060FFF798F8AF
:1029D000012802D0032062B610BD0020FBE700BF33
:1029E0004483002008B572B600210120FFF7E8FA01
:1029F000034B0020587062B6BDE80840FDF738BDB3
:102A00004483002008B572B600210846FFF7D8FAC3
:102A1000FFF7C0F862B608BDF0B572B6124D6B880C
:102A20009BB2022B1DD96C88104EA4B200234FF626
:102A3000FF77013CA4B2BC420ED15B4213F0FF030E
:102A40000FD10B4C14F8016B0670688802381080A7
:102A50000C60184662B6F0BD16F801EF7344DBB2A5
:102A6000E7E70520F6E700BF4483002079840020D3
:102A70007A84002070B572B6174B5D7805F0FF04BC
:102A800045BB01261E8101F8010C188912FA80F25B
:102A900092B21A811A8992B24D1E013A11445D60B8
:102AA00028462246884210D1198989B2481C80B232
:102AB000188152420948D2B20A5401210020997269
:102AC000FFF77EFA002062B670BD10F8014B224479
:102AD000D2B2E7E70520F6E7448300207A8400209D
:102AE00073B53A4D0DF10700FFF76AFB6B78DBB267
:102AF000012B2E4604D05DD3022B42D0002008E0EB
:102B0000FFF73AF89DF807203A2A04D10020E8722E
:102B1000688002B070BD0D2A02D102236B70EDE710
:102B2000A2F13003DBB2092B07D9A2F14103052B37
:102B30009ABFA2F13703DBB2FF23F27A02F0FF045F
:102B400072B1012CDAD17288214892B2115C0B4328
:102B50001354738801339BB200207380F072D8E75E
:102B6000728892B2FF2A08D87288194992B21B0162
:102B7000DBB253540123F372C0E77470FFF70AF815
:102B8000BCE79DF807302A7893424FF0000406D145
:102B9000FFF700F801206C70FDF76AFCB9E73A2BEB
:102BA00006D10123EC726C806B70FEF7E5FFA5E7A0
:102BB0006C70A3E79DF807303A2B9FD1FEF7DCFF3E
:102BC000002001236880E8726B70A2E74483002034
:102BD0007A84002070B52D4DAB7A0026042B16D8D0
:102BE000DFE803F04E030C3D43003A20FFF7DEFA26
:102BF00000240223AB72EC72204670BD2C89A4B273
:102C00003CB3EB7A03F0FF021BB1012A0DD0002484
:102C1000F2E76B6818780009092894BF3030373024
:102C2000FFF7C4FA0123EB72F1E76B68187800F044
:102C30000F00092894BF30303730FFF7B7FA6B68C0
:102C400000240133EC726B602B89013B9BB22B811A
:102C5000D2E70D20FFF7AAFA0323AB72CCE728785E
:102C6000FFF7A4FA0423AB72D1E70320AE72FDF79D
:102C7000FFFB002104460120FFF7A2F9AE72BBE77B
:102C800000210120FFF79CF9C1E700BF4483002029
:102C9000054A08B55378013B012B9CBF00235370B4
:102CA000FEF778FF002008BD44830020002380ED5C
:102CB000000AC0ED010A80ED021AC0ED031A43615B
:102CC0000362704780ED0B0AC0ED0C0A7047D0ED2F
:102CD000017A80EE270A80ED090A7047F7EE007A44
:102CE00087EE800A80ED070A7047000070EE600AE8
:102CF00090ED070ADFED2E7A60EE800AF4EEE70A27
:102D0000F1EE10FA51DCDFED2B7AF4EE670AF1EE0A
:102D100010FA48BFF0EE670A90ED087AD0ED097A14
:102D2000C0ED040A30EE877AB4EEE77AF1EE10FADD
:102D300080ED087AC8BFC0ED087A90ED087AF1EE10
:102D4000677AB4EEE77AF1EE10FA48BFC0ED087A80
:102D5000D0ED086AD0ED017A90ED057AC0ED050A54
:102D600067EEA67AD0ED006AE0EEA67A30EEC77A7A
:102D7000D0ED026AE7EE267A90ED0B7AC0ED0A7A82
:102D8000F4EEC77AF1EE10FAC8BF80ED0A7AD0ED02
:102D90000C7A90ED0A7AB4EEE77AF1EE10FA48BFB9
:102DA000C0ED0A7A90ED0A0A7047F0EE670AB3E7C1
:102DB00077BE7F3F77BE7FBF30B5048C24F001041F
:102DC0002404240C0484048B058C24F0F3042404D0
:102DD00042EA0313240C1C4325F00A031B041B0CBA
:102DE00041F00101A4B20B430483038430BD30B52C
:102DF000048C24F010042404240C0484058B048C1B
:102E0000120242EA033324F0A00225F440751204B2
:102E10002D05120C2D0D42EA01111D4341F0100148
:102E2000ADB289B20583018430BD000008B54D4BB9
:102E3000984209D101210846FDF770FF00210120C9
:102E4000BDE80840FDF76ABFB0F1804F09D101210C
:102E50000846FDF757FF00210120BDE80840FDF7B7
:102E600051BF414B984206D101210220FDF74AFF94
:102E700000210220F1E73D4B984206D101210420B8
:102E8000FDF740FF00210420E7E7394B984206D1C7
:102E900001210820FDF736FF00210820DDE7354B32
:102EA000984206D101211020FDF72CFF00211020AF
:102EB000D3E7314B984206D101212020FDF722FFB4
:102EC00000212020C9E72D4B984206D10121022084
:102ED000FDF724FF00210220B2E7294B984208D1D8
:102EE00001214FF48030FDF719FF00214FF48030AD
:102EF000A6E7244B984208D101214FF40030FDF79A
:102F00000DFF00214FF400309AE71F4B984208D183
:102F100001214FF48020FDF701FF00214FF48020B4
:102F20008EE71A4B984206D101214020FDF7EAFEB8
:102F30000021402091E7164B984206D101218020C4
:102F4000FDF7E0FE0021802087E7124B984208D170
:102F500001214FF48070FDF7D5FE00214FF4807001
:102F60007BE708BD0000014000040040000800406D
:102F7000000C00400010004000140040000401401C
:102F8000004001400044014000480140001800405A
:102F9000001C0040002000401C4A038890429BB265
:102FA00012D002F5806290420ED0B0F1804F0BD06B
:102FB000A2F58032904207D002F58062904203D0A1
:102FC00002F58062904203D14A8823F070031343D4
:102FD0000F4A904208D002F5806290421FBF23F44E
:102FE00040730A899BB2134303804B68C3620B880A
:102FF0000385064B984203D003F58063984201D1C4
:103000008B7A038601238382704700BF0000014052
:10301000001000404FF0FF33436000230380038122
:1030200043808372704741627047038821B19BB22D
:1030300043F080030380704723F080031B041B0CC4
:10304000F8E7038821B19BB243F001030380704786
:1030500023F001031B041B0CF8E70000038C23F092
:1030600001031B041B0C038470B5038C8288048B42
:103070000D884E8824F073042404240C2C4323F080
:1030800002038D891B0435431B0C2B430E4DA842B4
:1030900092B29BB203D005F58065A8420ED1CD89CE
:1030A0004E8A23F008032B438D8823F004032B431F
:1030B0000D8A22F4407235432A4392B282808A6894
:1030C00004834263038470BD00000140038C23F03D
:1030D00010031B041B0C038470B5038C8488028BC3
:1030E0000D884E8822F4E6421204120C42EA0522B0
:1030F00023F020038D891B0435431B0C43EA051381
:10310000114DA842A4B292B29BB203D005F58065DE
:10311000A84213D1CD894E8A23F0800343EA0513D8
:103120004FF6BF751D408B8845EA03130D8A24F4C2
:103130004064354344EA85049BB2A4B28480028390
:103140008A688263038470BD00000140038C23F40D
:1031500080731B041B0C038470B5038C8288848BE2
:103160000D884E8824F073042404240C2C4323F48B
:1031700000738D891B0435431B0C43EA0523114D55
:10318000A84292B29BB203D005F58065A84213D144
:10319000CD894E8A23F4006343EA05234FF6FF35B9
:1031A0001D408B8845EA03230D8A22F440523543A3
:1031B00042EA05129BB292B282808A688483C2631B
:1031C000038470BD00000140038C23F480531B0472
:1031D0001B0C038470B5038C8488828B0D884E8809
:1031E00022F4E6421204120C42EA052223F40053B0
:1031F0008D891B0435431B0C43EA05330A4DA84255
:10320000A4B292B29BB203D005F58065A84205D165
:103210000D8A24F4804444EA8514A4B28480828315
:103220008A680264038470BD0000014000230380AB
:103230004380838083608381C3810382438270479C
:103240004163704781637047C1637047038B23F00C
:1032500008031B041B0C194301837047038B23F4E1
:1032600000631B041B0C43EA012189B201837047F0
:10327000838B23F008031B041B0C194381837047C5
:10328000838B23F400631B041B0C43EA012189B2E6
:103290008183704700230122038043808280C380A2
:1032A00003817047038B23F00C031B041B0C038367
:1032B000038B9BB2194301837047038B23F4406354
:1032C0001B041B0C0383038B9BB243EA012189B2CD
:1032D00001837047838B23F00C031B041B0C838337
:1032E000838B9BB2194381837047838B23F44063A4
:1032F0001B041B0C8383838B9BB243EA012189B29D
:1033000081837047F8B50E880B898A880D464988F5
:1033100036B9FFF751FDE988BDE8F840FFF7C2BFB5
:10332000042E06D1FFF763FDE988BDE8F840FFF7FA
:10333000C4BF082EEF88058C1CD125F480752D04A0
:103340002D0C0584868B058CB6B226F0F30632432D
:10335000ADB242EA031325F4206242F4807242EADD
:1033600001229BB292B2838339460284BDE8F840C1
:10337000FFF7B0BF25F480552D042D0C0584868BF6
:10338000058C1B0343EA022326F4407645F6FF72C0
:103390002A403605360D42F48052334342EA013268
:1033A0009BB292B2838339460284BDE8F840FFF7AE
:1033B0009CBF4A880B8813438A881343CA881343E7
:1033C0000A8913434A8913438A8913439BB2A0F89D
:1033D00044307047038A828911EA030092B203D015
:1033E000114214BF012000207047C94389B20182F5
:1033F000704783899BB212B119438181704723EAD8
:103400000101FAE7FFF7F5BF838823F070031B047F
:103410001B0C838083889BB219438180704770B5F1
:103420000689048B058C24F4407424F0030425F0F1
:10343000220526F0070624042D043604240C2D0C46
:1034400042EA0313360C44F480741D43314344F0C4
:103450000104ADB201810483058470BD00B510EE96
:10346000103A204A23F00043934283B019DDB3F1B0
:10347000FF4F04DB30EE400A03B05DF804FB684602
:1034800000F07EF800F0030001281AD002280FD0C7
:1034900000B30120DDED010A9DED000A00F082FD80
:1034A000EAE7DFED110A00F0B3F903B05DF804FBC1
:1034B000DDED010A9DED000A00F0AAF9B1EE400A27
:1034C000DAE7DDED010A9DED000A00F06BFDB1EEDB
:1034D000400AD1E7DDED010A9DED000A00F098F900
:1034E000CAE700BFD80F493F0000000000B510EE4A
:1034F000103A214A23F00043934283B01ADDB3F11E
:10350000FF4F04DB30EE400A03B05DF804FB684671
:1035100000F036F800F0030001281DD0022811D079
:1035200008B3DDED010A9DED000A00F071F9B1EE7E
:10353000400AE9E70020DFED110A00F033FD03B097
:103540005DF804FB0120DDED010A9DED000A00F0AD
:1035500029FDB1EE400AD7E7DDED010A9DED000A35
:1035600000F056F9D0E70120DDED010A9DED000ADB
:1035700000F018FDC8E700BFD80F493F0000000069
:1035800070B510EE103A944A23F00044944286B08D
:10359000054668DD914A944210EE106A1ADC002B51
:1035A000DFED8F7A8F4A24F00F0440F3DD809442E0
:1035B00070EE677A66D09FED8C7A77EEC76A01204D
:1035C00077EEE67AC5ED006A77EEC77AC5ED017A47
:1035D00006B070BD854A944266DDB4F1FF4F49DA0A
:1035E000E215863AA4EBC25307EE903ABDEEE77AB5
:1035F000DFED7F6AB8EEC77A77EEC77A8DED037A92
:1036000067EEA67ABDEEE77AB8EEC77A77EEC77AAC
:103610008DED047A67EEA67AF5EE407AF1EE10FAB7
:10362000CDED057A40F0B380B5EE407AF1EE10FAB8
:103630000CBF012302236F4901910221009103A8CD
:10364000294600F067F9002E12DA95ED007AD5EDE3
:10365000017AB1EE477AF1EE677A404285ED007A61
:10366000C5ED017A04E0002285ED000A42600020E9
:1036700006B070BD70EE407A0020C5ED017AC5ED50
:10368000007AF5E7DFED5C6A9FED5C7A77EEE67A2B
:10369000012077EEC76A77EEE67AC5ED006A77EE2D
:1036A000C77AC5ED017AE3E700F0C4FCDFED546AA8
:1036B000DFED4B5ADFED4C7AB6EE007AA0EE267ABB
:1036C000BDEEC77AF8EEC76A17EE100AB1EE666A69
:1036D0001F28A6EE250A66EEA77A1DDC494A411E80
:1036E00024F0FF0352F82120934215D030EE677A80
:1036F00085ED007A30EE470A002E30EE670A85ED40
:10370000010AB5DAB1EE477AB1EE400A85ED007AEA
:1037100085ED010A4042ABE730EE677AE41517EE1B
:10372000103AC3F3C753E31A082BE1DDDFED327A19
:103730009FED327AF0EE405AE6EE275A30EE650AF7
:10374000A6EE270AF0EE407AD6EE877A35EEE77AD3
:1037500017EE103AC3F3C753E41A192C2CDC85ED8D
:10376000007AB0EE650AC5E7944270EE277A10D071
:103770009FED1D7A77EE876A4FF0FF3077EEE67A9D
:10378000C5ED006A77EE877AC5ED017A70E703230D
:1037900051E7DFED196A9FED197A77EEA67A4FF0BF
:1037A000FF3077EE876A77EEE67AC5ED006A77EE4E
:1037B000877AC5ED017A5BE79FED137A9FED135A87
:1037C000B0EE650AA6EE070A75EEC07AE6EE077A55
:1037D000D6EE857A8AE700BFD80F493FE3CB164083
:1037E000800FC93FD00FC93F43443537800F49434D
:1037F00000008043DC4700080044353708A3852ECD
:1038000084F9223F5C47000800A3852E32318D24C5
:1038100010EE103A23F00043B3F1485F2CDAFDEECE
:10382000C07A17EE903A002B60D020EE007ADFEDE0
:10383000314A9FED315ADFED315A9FED316ADFEDAC
:10384000317ADFED316AA7EE245AE7EE055AA7EE8A
:10385000256AE7EE067AE7EE276A66EE876A60EE8B
:10386000C00AB6EE006AE7EE260AF7EE007AD7EE57
:10387000060A37EEE00A704720EE007ADFED1D4AB7
:103880009FED1D5ADFED1D5A9FED1D6ADFED1D7A7C
:10389000DFED1D6A1D4AA7EE245A9342E7EE055A52
:1038A000A7EE256AE7EE067AE7EE276A66EE876AF4
:1038B000D5DD174A934214DC03F17F4307EE903ABB
:1038C000B7EE006A36EE676A60EEC00AF6EE005A9E
:1038D000E7EE260AD7EE257A77EEE07A36EE670A2B
:1038E0007047B6EE076AF5EE027AEDE7B7EE000A2A
:1038F000704700BF4ED747ADF6740F317CF293B4DA
:10390000010DD037610BB6BAABAA2A3D9999993E01
:103910000000483F2DE9F04F2DED048BD9B003F1A5
:10392000FF3A0493D31E48BF131DD44C669D0291E9
:10393000DB1023EAE373194654F82560069301333C
:10394000A2EBC3030193A1EB0A0316EB0A01814624
:1039500016D419449FEDCA7A679801311CAA002B2E
:10396000A4BF50F8234007EE904A03F10103ACBF17
:10397000F8EEE77AF0EE477A8B42E2EC017AEED18C
:10398000002EC0F20783049B44AD9C00771C1CAB47
:1039900005EB8707181909EB0401BAF1000FC0F213
:1039A0007582DFEDB77A4B460246F3EC016A32EDE1
:1039B000017A8B42E6EE877AF7D1E5EC017ABD42D7
:1039C00000F10400E9D106F18043013B9B0008AD02
:1039D0001A1FAA18B3460396DFEDAB8A9FEDA98A9A
:1039E000019E07924C4405EB030844AF4FEA8B035A
:1039F00058AA1A44BBF1000F12ED140A18DD07A9EA
:103A000007EB8B0260EE287AB0EE407AFDEEE77AA3
:103A100072ED016AF8EEE77ABA42A7EEC87A37EE9D
:103A2000A60ABDEEC77A17EE100A41F8040FE9D1D5
:103A30003046059300F04EFBB0EE409AB4EE000A1B
:103A400029EE000A00F0FEFAF2EE007AA0EE679A84
:103A5000002E059BFDEEC99AF8EEE97A39EE679AD9
:103A600040F3C9800BF1FF3EC6F1080255F82E1055
:103A700041FA02F000FA02F2891A45F82E1019EE06
:103A800090EA8644C6F1070209EE90EA1141002946
:103A900051DD19EE902ABBF1000F02F1010209EE8F
:103AA000902A40F312822A68002A40F06982BBF112
:103AB000010F40F32982AE4601205EF8042F002A50
:103AC00000F01E8200F1010EC2F58072F34545F848
:103AD000202012DD55F82E200230C2F1FF0283456E
:103AE00045F82E2009DD05EB8000EA180368C3F1D4
:103AF000FF0340F8043B9042F8D1002E0DDD012E6B
:103B00004FF0010240F0E7810BF1FF3055F8203013
:103B100003F07F0345F82030E7E102290BD1F7EEEF
:103B2000007A37EEC99A3046B7EE000A00F0D2FAB2
:103B300039EE409A0221B5EE409AF1EE10FA70D1BA
:103B4000039B0BF1FF3E73450EDC0BF18042013A03
:103B500005EB8202002052F80439424540EA030096
:103B6000F9D1002840F09480039B013B55F82330A5
:103B7000002B40F0D381079B4FF0010C53F8042930
:103B80000CF1010C002AF9D0DC440BF1010EE645E2
:103B90002FDC069A049B0EEB020103EB0B000CEBEF
:103BA00002031CAA01F1804102EB8000679A0139EF
:103BB00002EB810107EB8E0E02EB830B51F8043F01
:103BC00007EE903AF8EEE77ABAF1000FE0EC017AEE
:103BD000DFED2B7A09DB4B460246F3EC016A32ED4E
:103BE000017AA342E6EE877AF7D15945EEEC017AE5
:103BF000E4D1E346FAE605D10BF1FF3255F8221085
:103C0000091244E7F6EE007AB4EEE79AF1EE10FA04
:103C100080F24681B5EE409AF1EE10FA4FF00001C5
:103C20008ED0019C039EB0EE490A6042884600F0A7
:103C300051FA9FED147AB4EEC70AF1EE10FAC0F211
:103C40008581DFED117A60EE277A2346FDEEE77A73
:103C50000833F8EEE77A0193A7EEC70A0BF10103E8
:103C6000FDEEE77ABDEEC00A10EE102A45F82B20D3
:103C700017EE902A45F823201FE000BF204B0008D4
:103C800000000000000080430000803B0000C93FAE
:103C90008846019955F82E20039E083973460191F4
:103CA0005AB90EF18042013A05EB820252F804093A
:103CB000013B08390028F9D0019101980393B7EE30
:103CC000000A00F007FA039B002BC0F24A819F0014
:103CD00044AAD01907F1040E1FED157A05EB0E0268
:103CE000011D72ED017AF8EEE77AAA4267EE807A5A
:103CF00020EE070A61ED017AF3D11FED1C6A05463B
:103D00000DF5867C0024002EC0F2DC80A348DFED98
:103D1000A47A2946B0EE467A002203E0A24208DCEB
:103D2000B0EC017AF1EC016A01329642E7EE267AB4
:103D3000F4DA043D58AA02EB8402654542ED287A84
:103D400004F10104DFD1669A032A5AD8DFE802F0B1
:103D50008C626202002B40F3018158AA3A4430A9D8
:103D600012ED287A3A1D0A4431A8394451ED017AFE
:103D700077EE876A77EEE67A77EE877AB0EE667A44
:103D800062ED017A824261ED016AEFD1012B40F3CD
:103D9000E58058AB3B4430AA13ED287A3B1D32A98D
:103DA00017441A4457ED017A77EE876A77EEE67A80
:103DB00077EE877AB0EE667A62ED017A914267ED2E
:103DC000016AEFD130A9DFED767A0B4433ED017A49
:103DD0009A4277EE877AF9D14346002B00F0AE8005
:103DE000DDED306A9DED317A029AF1EE677AF1EEFF
:103DF000666AB1EE477AC2ED027AC2ED006A82EDE0
:103E0000017A19EE903A03F0070059B0BDEC048B2B
:103E1000BDE8F08F3A1D30A9DFED617A0A4432ED3A
:103E2000017A8A4277EE877AF9D14246002A78D021
:103E3000DDED306A029AB1EE677A002B76EEE77A12
:103E400082ED007A0ADD31A90122B1EC017A01325A
:103E5000934277EE877AF8DA43460BB1F1EE677A50
:103E6000029BC3ED017ACCE730ABDFED4D7A9E4487
:103E70003EED017A734577EE877AF9D143460BB16F
:103E8000F1EE677A029BC3ED007ABAE7DFED447A80
:103E9000E5EC017ABD4200F104007FF47EAD92E5CD
:103EA00019EE902ABBF1000F02F1010209EE902AEF
:103EB000C8BF02213FF7F7ADF7EE007A37EEC99A97
:103EC000022138E6DFED367A33E7002E1EDD0022D0
:103ED000012E3FF419AE022E07D10BF1FF3055F839
:103EE000203003F03F0345F8203002297FF423AE51
:103EF000F7EE007A37EEC99A002A3FF41CAE12E6BC
:103F0000013083457FF4D9AD002EE1DC02297FF436
:103F100012AEF7EE007A37EEC99A0CE64FF0010CBC
:103F200032E69DED307A029A002BC2ED007A77EEF0
:103F3000677A88DC029BC3ED017A62E70298309AC7
:103F4000319BC0ED027A026043605AE7BDEEC00AC1
:103F50005B4610EE102A45F82B20AEE6DFED107A16
:103F60003AE7669A032A3FF64CAF01A151F822F0D6
:103F70008F3F0008893F0008893F00085D3F000827
:103F80004FF0010E00209FE5DFED057A4DE7DFEDF4
:103F9000047A73E7049B9C0015E500BFF84A00080B
:103FA0000000000010EE103A23F00043B3F1485F28
:103FB00004DAFDEEC07A17EE903A23B360EE007A91
:103FC0009FED155ADFED155A9FED156ADFED156A65
:103FD0009FED157AE7EE855A20EE275AA7EEA56ADF
:103FE000E7EE866AA7EEA67A70B127EE457AF6EE7E
:103FF000006AA0EEA67ADFED0D6AD7EE870AE5EE3D
:10400000260A30EE600A7047DFED096AE7EE876A3C
:10401000A5EE260A704700BFD3C92E2F342FD7B282
:104020001BEF3836010D50B98988083CABAA2A3EEF
:10403000ABAA2ABE10EE103A23F0004300EE103A6D
:10404000704700BF10EE102A22F00041CB0D7F3BDD
:10405000162B17DC002B10EE100A19DB1A49194138
:104060000A4222D0DFED197A70EE277AF5EEC07A97
:10407000F1EE10FA19DD002A18DB20EA010300EE48
:10408000103A7047B1F1FF4F0FD330EE000A70477E
:10409000DFED0E7A70EE277AF5EEC07AF1EE10FAC7
:1040A00003DD002A08DB9FED0A0A70474FF4000287
:1040B00042FA03F31844E0E70029FFEE007A18BF44
:1040C000B0EE670A704700BFFFFF7F00CAF2497178
:1040D0000000000008B510EE103A33F000422DED5C
:1040E000028B11D0B2F1FF4F11D2B2F5000F13D3F2
:1040F000D20D0244FE2A2EDC002A1ADD23F0FF43F3
:1041000043EAC25300EE103ABDEC028B08BDBDEC91
:10411000028B30EE000A08BD1D4BDFED1E7A98427F
:1041200020EE270A22DB10EE103AC3F3C752193AE9
:10413000DFE712F1160F1EDA4CF2503398420ADC18
:104140009FED158AF0EE400AB0EE480A00F02AF81A
:1041500020EE080AD8E79FED118AF0EE400AB0EE93
:10416000480A00F01FF820EE080ACDE7DFED0A0A42
:1041700020EE200AC8E7193223F0FF4343EAC25376
:10418000DFED077A00EE103A20EE270ABCE700BF09
:10419000B03CFFFF0000004C6042A20DCAF2497122
:1041A0000000003310EE103A10EE902A23F0004386
:1041B00002F00042134300EE103A7047844641EA91
:1041C000000313F003036DD1403A41D351F8043B8F
:1041D00040F8043B51F8043B40F8043B51F8043BE1
:1041E00040F8043B51F8043B40F8043B51F8043BD1
:1041F00040F8043B51F8043B40F8043B51F8043BC1
:1042000040F8043B51F8043B40F8043B51F8043BB0
:1042100040F8043B51F8043B40F8043B51F8043BA0
:1042200040F8043B51F8043B40F8043B51F8043B90
:1042300040F8043B51F8043B40F8043B51F8043B80
:1042400040F8043B51F8043B40F8043B403ABDD2EF
:10425000303211D351F8043B40F8043B51F8043B91
:1042600040F8043B51F8043B40F8043B51F8043B50
:1042700040F8043B103AEDD20C3205D351F8043B20
:1042800040F8043B043AF9D2043208D0D2071CBFEC
:1042900011F8013B00F8013B01D30B880380604615
:1042A000704700BF082A13D38B078DD010F003038B
:1042B0008AD0C3F10403D21ADB071CBF11F8013BFB
:1042C00000F8013B80D331F8023B20F8023B7BE74A
:1042D000043AD9D3013A11F8013B00F8013BF9D275
:1042E0000B7803704B7843708B788370604670470F
:1042F00070B4860746D0541E002A41D0CAB2034685
:1043000002E014F1FF343BD303F8012B9D07F8D1F1
:10431000032C2ED9CDB245EA05250F2C45EA0545DB
:1043200019D903F110022646103E0F2E42F8105CF8
:1043300042F80C5C42F8085C42F8045C02F110029E
:10434000F2D8A4F1100222F00F0204F00F04103290
:10435000032C13440DD91E462246043A032A46F87C
:10436000045BFAD8221F22F003020432134404F043
:1043700003042CB1C9B21C4403F8011B9C42FBD1BD
:1043800070BC704714460346C2E700BF024B13B12E
:10439000024800F005B8704700000000AD43000877
:1043A000002301461A46184600F01EB838B50A4CDC
:1043B0000A4D641BA4100AD004F18043013B05EBB5
:1043C0008305013C55F804399847002CF9D1BDE824
:1043D000384000F071B800BFE8040020E404002079
:1043E000704700BF704700BF2DE9F8432C4D0646CB
:1043F000286898460F469146FFF7F2FF294B1C6844
:10440000D4F84831002B3ED05A681F2A1CDC02F138
:10441000010E76B103EB82010124C1F88890D3F834
:10442000880194402043022EC3F88801C1F8088116
:1044300023D00232C3F804E0286843F82270FFF763
:10444000D1FF0020BDE8F883174B0BB34FF4C870C1
:10445000AFF300800346D8B1D4F8482102600021B0
:1044600041600A46C4F848014FF0010EC0F88811B7
:10447000C0F88C11002EDCD0CCE7D3F88C110C43A3
:10448000C3F88C41D5E704F5A673C4F84831BBE7FF
:104490002868FFF7A7FF4FF0FF30BDE8F88300BFA3
:1044A000D80400202C4B000800000000F8B500BF25
:1044B000F8BC08BC9E467047F8B500BFF8BC08BC05
:1044C0009E467047000204040404040600C18140B3
:1044D00001C0804101C0804100C1814001C08041D4
:1044E00000C1814000C1814001C0804101C08041C4
:1044F00000C1814000C1814001C0804100C18140B4
:1045000001C0804101C0804100C1814001C08041A3
:1045100000C1814000C1814001C0804100C1814093
:1045200001C0804101C0804100C1814000C1814083
:1045300001C0804101C0804100C1814001C0804173
:1045400000C1814000C1814001C0804101C0804163
:1045500000C1814000C1814001C0804100C1814053
:1045600001C0804101C0804100C1814000C1814043
:1045700001C0804101C0804100C1814001C0804133
:1045800000C1814000C1814001C0804100C1814023
:1045900001C0804101C0804100C1814001C0804113
:1045A00000C1814000C1814001C0804101C0804103
:1045B00000C1814000C1814001C0804100C18140F3
:1045C00001C0804101C0804100C1814000C0C101E3
:1045D000C30302C2C60607C705C5C404CC0C0DCD73
:1045E0000FCFCE0E0ACACB0BC90908C8D81819D9E3
:1045F0001BDBDA1A1EDEDF1FDD1D1CDC14D4D51513
:10460000D71716D6D21213D311D1D010F03031F102
:1046100033F3F23236F6F737F53534F43CFCFD3D32
:10462000FF3F3EFEFA3A3BFB39F9F83828E8E92922
:10463000EB2B2AEAEE2E2FEF2DEDEC2CE42425E5D2
:1046400027E7E62622E2E323E12120E0A06061A142
:1046500063A3A26266A6A767A56564A46CACAD6DF2
:10466000AF6F6EAEAA6A6BAB69A9A86878B8B97962
:10467000BB7B7ABABE7E7FBF7DBDBC7CB47475B592
:1046800077B7B67672B2B373B17170B05090915182
:104690009353529296565797559594549C5C5D9DB2
:1046A0005F9F9E5E5A9A9B5B9959589888484989A2
:1046B0004B8B8A4A4E8E8F4F8D4D4C8C4484854552
:1046C0008747468682424383418180400000010043
:1046D00003000200050006000400000000000000C6
:1046E000000000009A02000035050000CF0700001E
:1046F0006A0A0000050D0000000000000000000034
:104700009A02000035050000CF0700006A0A000089
:10471000050D00009F0F00000000000000000000D9
:10472000000000003C00000078000000B400000021
:10473000F00000002C01000000000000000000005C
:104740003C00000078000000B4000000F000000011
:104750002C0100006801000000000000000FC93FAC
:10476000000F494000CB9640000FC9400053FB406A
:1047700000CB164100ED2F41000F4941003162414D
:1047800000537B41003A8A4100CB9641005CA34133
:1047900000EDAF41007EBC41000FC94100A0D541F2
:1047A0000031E24100C2EE410053FB4100F20342FE
:1047B000003A0A420083104200CB164200141D4208
:1047C000005C234200A5294200ED2F42003636420C
:1047D000007E3C4200C74242000F4942A200000056
:1047E000F9000000830000006E0000004E00000091
:1047F000440000001500000029000000FC0000003B
:104800002700000057000000D1000000F500000064
:1048100034000000DD000000C0000000DB000000EC
:104820006200000095000000990000003C000000BC
:10483000430000009000000041000000FE00000066
:104840005100000063000000AB000000DE0000002B
:10485000BB000000C500000061000000B7000000C0
:10486000240000006E0000003A000000420000003A
:104870004D000000D2000000E00000000600000033
:10488000490000002E000000EA00000009000000BE
:10489000D1000000920000001C000000FE0000009B
:1048A0001D000000EB0000001C000000B100000033
:1048B00029000000A70000003E000000E800000002
:1048C0008200000035000000F50000002E0000000E
:1048D000BB0000004400000084000000E90000006C
:1048E0009C0000007000000026000000B4000000E2
:1048F0005F0000007E000000410000003900000061
:1049000091000000D6000000390000008300000084
:104910005300000039000000F40000009C0000007B
:10492000840000005F0000008B000000BD0000005C
:10493000F9000000280000003B0000001F000000FC
:10494000F800000097000000FF000000DE000000FB
:1049500005000000980000000F000000EF000000BC
:104960002F000000110000008B0000005A00000022
:104970000A0000006D0000001F0000006D00000034
:10498000360000007E000000CF000000270000007D
:10499000CB00000009000000B70000004F0000003D
:1049A000460000003F000000660000009E0000007E
:1049B0005F000000EA0000002D000000750000000C
:1049C00027000000BA000000C7000000EB00000054
:1049D000E5000000F10000007B0000003D00000049
:1049E0000700000039000000F70000008A00000006
:1049F0005200000092000000EA0000006B0000007E
:104A0000FB0000005F000000B10000001F0000007C
:104A10008D0000005D00000008000000560000004E
:104A2000030000003000000046000000FC00000011
:104A30007B0000006B000000AB000000F0000000F5
:104A4000CF000000BC000000200000009A00000021
:104A5000F4000000360000001D000000A900000066
:104A6000E300000091000000610000005E00000013
:104A7000E60000001B0000000800000065000000C8
:104A800099000000850000005F0000001400000095
:104A9000A000000068000000400000008D00000041
:104AA000FF000000D8000000800000004D00000062
:104AB0007300000027000000310000000600000025
:104AC000060000001500000056000000CA000000AB
:104AD00073000000A8000000C90000006000000092
:104AE000E20000007B000000C00000008C0000001D
:104AF0006B0000000000C93F0000F0390000DA3709
:104B00000000A2330000842E0000502B0000C227BA
:104B10000000D0220000C41F0000C61B0000441784
:104B2000040000000700000009000000B0000020A1
:104B300002000000110000009904000804000000B9
:104B40006715000803000000390800081000000085
:104B5000EF07000806000000C1070008170000006A
:104B60009108000801000000D521000805000000A0
:104B7000412200080F0000008B2200080200000004
:104B8000F503000800000000000000000000000025
:104B90000000000000000000000000000000000015
:104BA0000000000000000000000000000000000005
:104BB00000000000FF070000FF07000000000000E9
:104BC000010203040102030406070809007A030A2C
:104BD00000000000000000000102030406070809AD
:104BE000000000009C030020040400206C0400204E
:104BF00000000000000000000000000000000000B5
:104C000000000000000000000000000000000000A4
:104C10000000000000000000000000000000000094
:104C20000000000000000000000000000000000084
:104C30000000000000000000000000000000000074
:104C40000000000000000000000000000000000064
:104C50000000000000000000000000000000000054
:104C60000000000000000000000000000000000044
:104C70000000000000000000000000000000000034
:104C80000000000000000000010000000000000023
:104C90000E33CDAB34126DE6ECDE05000B000000E8
:104CA0000000000000000000000000000000000004
:104CB00000000000000000000000000000000000F4
:104CC00000000000000000000000000000000000E4
:104CD00000000000000000000000000000000000D4
:1050000000000000000000007C8500208D430008A7
:0C501000AD01000889010008000000004C
:0400000508000000EF
:00000001FF
